{
  "contractName": "FundRaiseContract",
  "abi": [
    {
      "anonymous": false,
      "inputs": [
        {
          "indexed": true,
          "internalType": "address",
          "name": "owner",
          "type": "address"
        },
        {
          "indexed": false,
          "internalType": "uint256",
          "name": "campaignId",
          "type": "uint256"
        }
      ],
      "name": "FundRaiseCreate",
      "type": "event"
    },
    {
      "anonymous": false,
      "inputs": [
        {
          "indexed": true,
          "internalType": "address",
          "name": "donator",
          "type": "address"
        },
        {
          "indexed": false,
          "internalType": "uint256",
          "name": "campaignId",
          "type": "uint256"
        },
        {
          "indexed": false,
          "internalType": "uint256",
          "name": "amount",
          "type": "uint256"
        }
      ],
      "name": "FundRaiseDonate",
      "type": "event"
    },
    {
      "anonymous": false,
      "inputs": [
        {
          "indexed": true,
          "internalType": "address",
          "name": "owner",
          "type": "address"
        },
        {
          "indexed": false,
          "internalType": "uint256",
          "name": "campaignId",
          "type": "uint256"
        },
        {
          "indexed": false,
          "internalType": "uint256",
          "name": "amount",
          "type": "uint256"
        }
      ],
      "name": "FundRaiseWithdraw",
      "type": "event"
    },
    {
      "anonymous": false,
      "inputs": [
        {
          "indexed": false,
          "internalType": "uint8",
          "name": "version",
          "type": "uint8"
        }
      ],
      "name": "Initialized",
      "type": "event"
    },
    {
      "anonymous": false,
      "inputs": [
        {
          "indexed": true,
          "internalType": "address",
          "name": "previousOwner",
          "type": "address"
        },
        {
          "indexed": true,
          "internalType": "address",
          "name": "newOwner",
          "type": "address"
        }
      ],
      "name": "OwnershipTransferred",
      "type": "event"
    },
    {
      "inputs": [],
      "name": "campaignId",
      "outputs": [
        {
          "internalType": "uint256",
          "name": "",
          "type": "uint256"
        }
      ],
      "stateMutability": "view",
      "type": "function"
    },
    {
      "inputs": [
        {
          "internalType": "uint256",
          "name": "",
          "type": "uint256"
        }
      ],
      "name": "campaigns",
      "outputs": [
        {
          "internalType": "uint256",
          "name": "id",
          "type": "uint256"
        },
        {
          "internalType": "uint256",
          "name": "goal",
          "type": "uint256"
        },
        {
          "internalType": "uint256",
          "name": "currentAmount",
          "type": "uint256"
        },
        {
          "internalType": "uint256",
          "name": "expireOf",
          "type": "uint256"
        },
        {
          "internalType": "string",
          "name": "description",
          "type": "string"
        },
        {
          "internalType": "string",
          "name": "title",
          "type": "string"
        },
        {
          "internalType": "string",
          "name": "ipfsHash",
          "type": "string"
        },
        {
          "internalType": "enum FundRaiseContract.FundRaiseStatus",
          "name": "status",
          "type": "uint8"
        }
      ],
      "stateMutability": "view",
      "type": "function"
    },
    {
      "inputs": [
        {
          "internalType": "address",
          "name": "",
          "type": "address"
        }
      ],
      "name": "fundRaisers",
      "outputs": [
        {
          "internalType": "address",
          "name": "userAddress",
          "type": "address"
        },
        {
          "internalType": "uint256",
          "name": "id",
          "type": "uint256"
        },
        {
          "internalType": "bool",
          "name": "isRegistered",
          "type": "bool"
        }
      ],
      "stateMutability": "view",
      "type": "function"
    },
    {
      "inputs": [],
      "name": "owner",
      "outputs": [
        {
          "internalType": "address",
          "name": "",
          "type": "address"
        }
      ],
      "stateMutability": "view",
      "type": "function"
    },
    {
      "inputs": [],
      "name": "renounceOwnership",
      "outputs": [],
      "stateMutability": "nonpayable",
      "type": "function"
    },
    {
      "inputs": [
        {
          "internalType": "address",
          "name": "newOwner",
          "type": "address"
        }
      ],
      "name": "transferOwnership",
      "outputs": [],
      "stateMutability": "nonpayable",
      "type": "function"
    },
    {
      "inputs": [],
      "name": "initialize",
      "outputs": [],
      "stateMutability": "nonpayable",
      "type": "function"
    },
    {
      "inputs": [
        {
          "internalType": "uint256",
          "name": "expireOf",
          "type": "uint256"
        },
        {
          "internalType": "uint256",
          "name": "goal",
          "type": "uint256"
        },
        {
          "internalType": "string",
          "name": "title",
          "type": "string"
        },
        {
          "internalType": "string",
          "name": "description",
          "type": "string"
        },
        {
          "internalType": "string",
          "name": "ipfsHash",
          "type": "string"
        }
      ],
      "name": "createCampaign",
      "outputs": [],
      "stateMutability": "nonpayable",
      "type": "function"
    },
    {
      "inputs": [
        {
          "internalType": "uint256",
          "name": "_campaignId",
          "type": "uint256"
        }
      ],
      "name": "donate",
      "outputs": [],
      "stateMutability": "payable",
      "type": "function"
    },
    {
      "inputs": [
        {
          "internalType": "uint256",
          "name": "_campaignId",
          "type": "uint256"
        }
      ],
      "name": "withdraw",
      "outputs": [],
      "stateMutability": "payable",
      "type": "function"
    },
    {
      "inputs": [],
      "name": "getAllCampaignsByAddress",
      "outputs": [
        {
          "components": [
            {
              "internalType": "uint256",
              "name": "id",
              "type": "uint256"
            },
            {
              "internalType": "uint256",
              "name": "goal",
              "type": "uint256"
            },
            {
              "internalType": "uint256",
              "name": "currentAmount",
              "type": "uint256"
            },
            {
              "internalType": "uint256",
              "name": "expireOf",
              "type": "uint256"
            },
            {
              "internalType": "string",
              "name": "description",
              "type": "string"
            },
            {
              "internalType": "string",
              "name": "title",
              "type": "string"
            },
            {
              "internalType": "string",
              "name": "ipfsHash",
              "type": "string"
            },
            {
              "internalType": "enum FundRaiseContract.FundRaiseStatus",
              "name": "status",
              "type": "uint8"
            }
          ],
          "internalType": "struct FundRaiseContract.Campaign[]",
          "name": "",
          "type": "tuple[]"
        }
      ],
      "stateMutability": "view",
      "type": "function"
    },
    {
      "inputs": [],
      "name": "getAllCampaigns",
      "outputs": [
        {
          "components": [
            {
              "internalType": "uint256",
              "name": "id",
              "type": "uint256"
            },
            {
              "internalType": "uint256",
              "name": "goal",
              "type": "uint256"
            },
            {
              "internalType": "uint256",
              "name": "currentAmount",
              "type": "uint256"
            },
            {
              "internalType": "uint256",
              "name": "expireOf",
              "type": "uint256"
            },
            {
              "internalType": "string",
              "name": "description",
              "type": "string"
            },
            {
              "internalType": "string",
              "name": "title",
              "type": "string"
            },
            {
              "internalType": "string",
              "name": "ipfsHash",
              "type": "string"
            },
            {
              "internalType": "enum FundRaiseContract.FundRaiseStatus",
              "name": "status",
              "type": "uint8"
            }
          ],
          "internalType": "struct FundRaiseContract.Campaign[]",
          "name": "",
          "type": "tuple[]"
        }
      ],
      "stateMutability": "view",
      "type": "function"
    }
  ],
  "bytecode": "0x608060405234801561001057600080fd5b506126f2806100206000396000f3fe6080604052600436106100a75760003560e01c806386cdf6041161006457806386cdf604146101a25780638da5cb5b146101cd5780638ed5b0fc146101f8578063c8e30e9414610223578063f14faf6f1461024e578063f2fde38b1461026a576100a7565b8063031a5ee5146100ac578063141961bc146100eb5780632e1a7d4d1461012f578063715018a61461014b57806371572a56146101625780638129fc1c1461018b575b600080fd5b3480156100b857600080fd5b506100d360048036038101906100ce9190611ad6565b610293565b6040516100e293929190611f19565b60405180910390f35b3480156100f757600080fd5b50610112600480360381019061010d9190611aff565b6102ea565b6040516101269897969594939291906120b1565b60405180910390f35b61014960048036038101906101449190611aff565b6104d7565b005b34801561015757600080fd5b50610160610752565b005b34801561016e57600080fd5b5061018960048036038101906101849190611b28565b6107da565b005b34801561019757600080fd5b506101a0610c23565b005b3480156101ae57600080fd5b506101b7610cc7565b6040516101c49190611f50565b60405180910390f35b3480156101d957600080fd5b506101e2611043565b6040516101ef9190611efe565b60405180910390f35b34801561020457600080fd5b5061020d61106d565b60405161021a919061206d565b60405180910390f35b34801561022f57600080fd5b50610238611073565b6040516102459190611f50565b60405180910390f35b61026860048036038101906102639190611aff565b6114b9565b005b34801561027657600080fd5b50610291600480360381019061028c9190611ad6565b611591565b005b60676020528060005260406000206000915090508060000160009054906101000a900473ffffffffffffffffffffffffffffffffffffffff16908060010154908060030160009054906101000a900460ff16905083565b606860205280600052604060002060009150905080600001549080600101549080600201549080600301549080600401805461032590612324565b80601f016020809104026020016040519081016040528092919081815260200182805461035190612324565b801561039e5780601f106103735761010080835404028352916020019161039e565b820191906000526020600020905b81548152906001019060200180831161038157829003601f168201915b5050505050908060050180546103b390612324565b80601f01602080910402602001604051908101604052809291908181526020018280546103df90612324565b801561042c5780601f106104015761010080835404028352916020019161042c565b820191906000526020600020905b81548152906001019060200180831161040f57829003601f168201915b50505050509080600601805461044190612324565b80601f016020809104026020016040519081016040528092919081815260200182805461046d90612324565b80156104ba5780601f1061048f576101008083540402835291602001916104ba565b820191906000526020600020905b81548152906001019060200180831161049d57829003601f168201915b5050505050908060070160009054906101000a900460ff16905088565b606760003373ffffffffffffffffffffffffffffffffffffffff1673ffffffffffffffffffffffffffffffffffffffff16815260200190815260200160002060000160009054906101000a900473ffffffffffffffffffffffffffffffffffffffff1673ffffffffffffffffffffffffffffffffffffffff163373ffffffffffffffffffffffffffffffffffffffff16146105a7576040517f08c379a000000000000000000000000000000000000000000000000000000000815260040161059e90611f8d565b60405180910390fd5b606860008281526020019081526020016000206003015442116105ff576040517f08c379a00000000000000000000000000000000000000000000000000000000081526004016105f69061200d565b60405180910390fd5b6000606860008381526020019081526020016000206002015490503373ffffffffffffffffffffffffffffffffffffffff166108fc829081150290604051600060405180830381858888f19350505050158015610660573d6000803e3d6000fd5b5060016068600084815260200190815260200160002060070160006101000a81548160ff021916908360018111156106c1577f4e487b7100000000000000000000000000000000000000000000000000000000600052602160045260246000fd5b021790555060006068600084815260200190815260200160002060030181905550600060686000848152602001908152602001600020600201819055503373ffffffffffffffffffffffffffffffffffffffff167fd34468bc94161960698dc5449c13bf27f2d7ec9fa5c0e9cc6b0ffdee29a2baec8383604051610746929190612088565b60405180910390a25050565b61075a611689565b73ffffffffffffffffffffffffffffffffffffffff16610778611043565b73ffffffffffffffffffffffffffffffffffffffff16146107ce576040517f08c379a00000000000000000000000000000000000000000000000000000000081526004016107c59061202d565b60405180910390fd5b6107d86000611691565b565b60006040518061010001604052806065548152602001868152602001600081526020018781526020018481526020018581526020018381526020016000600181111561084f577f4e487b7100000000000000000000000000000000000000000000000000000000600052602160045260246000fd5b8152509050606760003373ffffffffffffffffffffffffffffffffffffffff1673ffffffffffffffffffffffffffffffffffffffff16815260200190815260200160002060030160009054906101000a900460ff16610a575733606760003373ffffffffffffffffffffffffffffffffffffffff1673ffffffffffffffffffffffffffffffffffffffff16815260200190815260200160002060000160006101000a81548173ffffffffffffffffffffffffffffffffffffffff021916908373ffffffffffffffffffffffffffffffffffffffff160217905550606654606760003373ffffffffffffffffffffffffffffffffffffffff1673ffffffffffffffffffffffffffffffffffffffff16815260200190815260200160002060010181905550606760003373ffffffffffffffffffffffffffffffffffffffff1673ffffffffffffffffffffffffffffffffffffffff16815260200190815260200160002060020160655490806001815401808255809150506001900390600052602060002001600090919091909150556001606760003373ffffffffffffffffffffffffffffffffffffffff1673ffffffffffffffffffffffffffffffffffffffff16815260200190815260200160002060030160006101000a81548160ff021916908315150217905550600160666000828254610a4b9190612200565b92505081905550610ac3565b606760003373ffffffffffffffffffffffffffffffffffffffff1673ffffffffffffffffffffffffffffffffffffffff16815260200190815260200160002060020160655490806001815401808255809150506001900390600052602060002001600090919091909150555b80606860006065548152602001908152602001600020600082015181600001556020820151816001015560408201518160020155606082015181600301556080820151816004019080519060200190610b1d929190611924565b5060a0820151816005019080519060200190610b3a929190611924565b5060c0820151816006019080519060200190610b57929190611924565b5060e08201518160070160006101000a81548160ff02191690836001811115610ba9577f4e487b7100000000000000000000000000000000000000000000000000000000600052602160045260246000fd5b0217905550905050600160656000828254610bc49190612200565b925050819055503373ffffffffffffffffffffffffffffffffffffffff167fc59c2864c121b32ae68d88f0c862e834df52f6d7ffdbe8b900f163e80ef30bb6606554604051610c13919061206d565b60405180910390a2505050505050565b6000610c2f6001611757565b90508015610c53576001600060016101000a81548160ff0219169083151502179055505b60006065819055506000606681905550610c6b611847565b8015610cc45760008060016101000a81548160ff0219169083151502179055507f7f26b83ff96e1f2b6a682f133852f6798a09c465da95921460cefb38474024986001604051610cbb9190611f72565b60405180910390a15b50565b60606000606554905060008167ffffffffffffffff811115610d12577f4e487b7100000000000000000000000000000000000000000000000000000000600052604160045260246000fd5b604051908082528060200260200182016040528015610d4b57816020015b610d386119aa565b815260200190600190039081610d305790505b50905060005b8281101561103a576000606860008381526020019081526020016000206040518061010001604052908160008201548152602001600182015481526020016002820154815260200160038201548152602001600482018054610db290612324565b80601f0160208091040260200160405190810160405280929190818152602001828054610dde90612324565b8015610e2b5780601f10610e0057610100808354040283529160200191610e2b565b820191906000526020600020905b815481529060010190602001808311610e0e57829003601f168201915b50505050508152602001600582018054610e4490612324565b80601f0160208091040260200160405190810160405280929190818152602001828054610e7090612324565b8015610ebd5780601f10610e9257610100808354040283529160200191610ebd565b820191906000526020600020905b815481529060010190602001808311610ea057829003601f168201915b50505050508152602001600682018054610ed690612324565b80601f0160208091040260200160405190810160405280929190818152602001828054610f0290612324565b8015610f4f5780601f10610f2457610100808354040283529160200191610f4f565b820191906000526020600020905b815481529060010190602001808311610f3257829003601f168201915b505050505081526020016007820160009054906101000a900460ff166001811115610fa3577f4e487b7100000000000000000000000000000000000000000000000000000000600052602160045260246000fd5b6001811115610fdb577f4e487b7100000000000000000000000000000000000000000000000000000000600052602160045260246000fd5b8152505090508083838151811061101b577f4e487b7100000000000000000000000000000000000000000000000000000000600052603260045260246000fd5b602002602001018190525050808061103290612387565b915050610d51565b50809250505090565b6000603360009054906101000a900473ffffffffffffffffffffffffffffffffffffffff16905090565b60655481565b60606000606760003373ffffffffffffffffffffffffffffffffffffffff1673ffffffffffffffffffffffffffffffffffffffff16815260200190815260200160002060020180548060200260200160405190810160405280929190818152602001828054801561110357602002820191906000526020600020905b8154815260200190600101908083116110ef575b505050505090506000815167ffffffffffffffff81111561114d577f4e487b7100000000000000000000000000000000000000000000000000000000600052604160045260246000fd5b60405190808252806020026020018201604052801561118657816020015b6111736119aa565b81526020019060019003908161116b5790505b50905060005b82518110156114b057606860008483815181106111d2577f4e487b7100000000000000000000000000000000000000000000000000000000600052603260045260246000fd5b60200260200101518152602001908152602001600020604051806101000160405290816000820154815260200160018201548152602001600282015481526020016003820154815260200160048201805461122c90612324565b80601f016020809104026020016040519081016040528092919081815260200182805461125890612324565b80156112a55780601f1061127a576101008083540402835291602001916112a5565b820191906000526020600020905b81548152906001019060200180831161128857829003601f168201915b505050505081526020016005820180546112be90612324565b80601f01602080910402602001604051908101604052809291908181526020018280546112ea90612324565b80156113375780601f1061130c57610100808354040283529160200191611337565b820191906000526020600020905b81548152906001019060200180831161131a57829003601f168201915b5050505050815260200160068201805461135090612324565b80601f016020809104026020016040519081016040528092919081815260200182805461137c90612324565b80156113c95780601f1061139e576101008083540402835291602001916113c9565b820191906000526020600020905b8154815290600101906020018083116113ac57829003601f168201915b505050505081526020016007820160009054906101000a900460ff16600181111561141d577f4e487b7100000000000000000000000000000000000000000000000000000000600052602160045260246000fd5b6001811115611455577f4e487b7100000000000000000000000000000000000000000000000000000000600052602160045260246000fd5b81525050828281518110611492577f4e487b7100000000000000000000000000000000000000000000000000000000600052603260045260246000fd5b602002602001018190525080806114a890612387565b91505061118c565b50809250505090565b60686000828152602001908152602001600020600301544210611511576040517f08c379a000000000000000000000000000000000000000000000000000000000815260040161150890611fcd565b60405180910390fd5b346068600083815260200190815260200160002060020160008282546115379190612200565b925050819055503373ffffffffffffffffffffffffffffffffffffffff167fbce1df33c37f3ed0cbe86fa4c7de89002b38c4bcc70cdd365bd950b8850a85628234604051611586929190612088565b60405180910390a250565b611599611689565b73ffffffffffffffffffffffffffffffffffffffff166115b7611043565b73ffffffffffffffffffffffffffffffffffffffff161461160d576040517f08c379a00000000000000000000000000000000000000000000000000000000081526004016116049061202d565b60405180910390fd5b600073ffffffffffffffffffffffffffffffffffffffff168173ffffffffffffffffffffffffffffffffffffffff16141561167d576040517f08c379a000000000000000000000000000000000000000000000000000000000815260040161167490611fad565b60405180910390fd5b61168681611691565b50565b600033905090565b6000603360009054906101000a900473ffffffffffffffffffffffffffffffffffffffff16905081603360006101000a81548173ffffffffffffffffffffffffffffffffffffffff021916908373ffffffffffffffffffffffffffffffffffffffff1602179055508173ffffffffffffffffffffffffffffffffffffffff168173ffffffffffffffffffffffffffffffffffffffff167f8be0079c531659141344cd1fd0a4f28419497f9722a3daafe3b4186f6b6457e060405160405180910390a35050565b60008060019054906101000a900460ff16156117ce5760018260ff161480156117865750611784306118a0565b155b6117c5576040517f08c379a00000000000000000000000000000000000000000000000000000000081526004016117bc90611fed565b60405180910390fd5b60009050611842565b8160ff1660008054906101000a900460ff1660ff1610611823576040517f08c379a000000000000000000000000000000000000000000000000000000000815260040161181a90611fed565b60405180910390fd5b816000806101000a81548160ff021916908360ff160217905550600190505b919050565b600060019054906101000a900460ff16611896576040517f08c379a000000000000000000000000000000000000000000000000000000000815260040161188d9061204d565b60405180910390fd5b61189e6118c3565b565b6000808273ffffffffffffffffffffffffffffffffffffffff163b119050919050565b600060019054906101000a900460ff16611912576040517f08c379a00000000000000000000000000000000000000000000000000000000081526004016119099061204d565b60405180910390fd5b61192261191d611689565b611691565b565b82805461193090612324565b90600052602060002090601f0160209004810192826119525760008555611999565b82601f1061196b57805160ff1916838001178555611999565b82800160010185558215611999579182015b8281111561199857825182559160200191906001019061197d565b5b5090506119a69190611a27565b5090565b6040518061010001604052806000815260200160008152602001600081526020016000815260200160608152602001606081526020016060815260200160006001811115611a21577f4e487b7100000000000000000000000000000000000000000000000000000000600052602160045260246000fd5b81525090565b5b80821115611a40576000816000905550600101611a28565b5090565b6000611a57611a5284612169565b612144565b905082815260208101848484011115611a6f57600080fd5b611a7a8482856122e2565b509392505050565b600081359050611a918161268e565b92915050565b600082601f830112611aa857600080fd5b8135611ab8848260208601611a44565b91505092915050565b600081359050611ad0816126a5565b92915050565b600060208284031215611ae857600080fd5b6000611af684828501611a82565b91505092915050565b600060208284031215611b1157600080fd5b6000611b1f84828501611ac1565b91505092915050565b600080600080600060a08688031215611b4057600080fd5b6000611b4e88828901611ac1565b9550506020611b5f88828901611ac1565b945050604086013567ffffffffffffffff811115611b7c57600080fd5b611b8888828901611a97565b935050606086013567ffffffffffffffff811115611ba557600080fd5b611bb188828901611a97565b925050608086013567ffffffffffffffff811115611bce57600080fd5b611bda88828901611a97565b9150509295509295909350565b6000611bf38383611e22565b905092915050565b611c0481612256565b82525050565b6000611c15826121aa565b611c1f81856121cd565b935083602082028501611c318561219a565b8060005b85811015611c6d5784840389528151611c4e8582611be7565b9450611c59836121c0565b925060208a01995050600181019050611c35565b50829750879550505050505092915050565b611c8881612268565b82525050565b611c97816122be565b82525050565b611ca6816122be565b82525050565b611cb5816122d0565b82525050565b6000611cc6826121b5565b611cd081856121de565b9350611ce08185602086016122f1565b611ce98161248c565b840191505092915050565b6000611cff826121b5565b611d0981856121ef565b9350611d198185602086016122f1565b611d228161248c565b840191505092915050565b6000611d3a601a836121ef565b9150611d458261249d565b602082019050919050565b6000611d5d6026836121ef565b9150611d68826124c6565b604082019050919050565b6000611d806026836121ef565b9150611d8b82612515565b604082019050919050565b6000611da3602e836121ef565b9150611dae82612564565b604082019050919050565b6000611dc66033836121ef565b9150611dd1826125b3565b604082019050919050565b6000611de96020836121ef565b9150611df482612602565b602082019050919050565b6000611e0c602b836121ef565b9150611e178261262b565b604082019050919050565b600061010083016000830151611e3b6000860182611ee0565b506020830151611e4e6020860182611ee0565b506040830151611e616040860182611ee0565b506060830151611e746060860182611ee0565b5060808301518482036080860152611e8c8282611cbb565b91505060a083015184820360a0860152611ea68282611cbb565b91505060c083015184820360c0860152611ec08282611cbb565b91505060e0830151611ed560e0860182611c8e565b508091505092915050565b611ee9816122a7565b82525050565b611ef8816122a7565b82525050565b6000602082019050611f136000830184611bfb565b92915050565b6000606082019050611f2e6000830186611bfb565b611f3b6020830185611eef565b611f486040830184611c7f565b949350505050565b60006020820190508181036000830152611f6a8184611c0a565b905092915050565b6000602082019050611f876000830184611cac565b92915050565b60006020820190508181036000830152611fa681611d2d565b9050919050565b60006020820190508181036000830152611fc681611d50565b9050919050565b60006020820190508181036000830152611fe681611d73565b9050919050565b6000602082019050818103600083015261200681611d96565b9050919050565b6000602082019050818103600083015261202681611db9565b9050919050565b6000602082019050818103600083015261204681611ddc565b9050919050565b6000602082019050818103600083015261206681611dff565b9050919050565b60006020820190506120826000830184611eef565b92915050565b600060408201905061209d6000830185611eef565b6120aa6020830184611eef565b9392505050565b6000610100820190506120c7600083018b611eef565b6120d4602083018a611eef565b6120e16040830189611eef565b6120ee6060830188611eef565b81810360808301526121008187611cf4565b905081810360a08301526121148186611cf4565b905081810360c08301526121288185611cf4565b905061213760e0830184611c9d565b9998505050505050505050565b600061214e61215f565b905061215a8282612356565b919050565b6000604051905090565b600067ffffffffffffffff8211156121845761218361245d565b5b61218d8261248c565b9050602081019050919050565b6000819050602082019050919050565b600081519050919050565b600081519050919050565b6000602082019050919050565b600082825260208201905092915050565b600082825260208201905092915050565b600082825260208201905092915050565b600061220b826122a7565b9150612216836122a7565b9250827fffffffffffffffffffffffffffffffffffffffffffffffffffffffffffffffff0382111561224b5761224a6123d0565b5b828201905092915050565b600061226182612287565b9050919050565b60008115159050919050565b60008190506122828261267a565b919050565b600073ffffffffffffffffffffffffffffffffffffffff82169050919050565b6000819050919050565b600060ff82169050919050565b60006122c982612274565b9050919050565b60006122db826122b1565b9050919050565b82818337600083830152505050565b60005b8381101561230f5780820151818401526020810190506122f4565b8381111561231e576000848401525b50505050565b6000600282049050600182168061233c57607f821691505b602082108114156123505761234f61242e565b5b50919050565b61235f8261248c565b810181811067ffffffffffffffff8211171561237e5761237d61245d565b5b80604052505050565b6000612392826122a7565b91507fffffffffffffffffffffffffffffffffffffffffffffffffffffffffffffffff8214156123c5576123c46123d0565b5b600182019050919050565b7f4e487b7100000000000000000000000000000000000000000000000000000000600052601160045260246000fd5b7f4e487b7100000000000000000000000000000000000000000000000000000000600052602160045260246000fd5b7f4e487b7100000000000000000000000000000000000000000000000000000000600052602260045260246000fd5b7f4e487b7100000000000000000000000000000000000000000000000000000000600052604160045260246000fd5b6000601f19601f8301169050919050565b7f57697468647261776572206e6f7420617574686f72697a65642e000000000000600082015250565b7f4f776e61626c653a206e6577206f776e657220697320746865207a65726f206160008201527f6464726573730000000000000000000000000000000000000000000000000000602082015250565b7f596f752063616e7420646f6e61746520746f2066696e69736865642063616d7060008201527f6169676e732e0000000000000000000000000000000000000000000000000000602082015250565b7f496e697469616c697a61626c653a20636f6e747261637420697320616c72656160008201527f647920696e697469616c697a6564000000000000000000000000000000000000602082015250565b7f43616e27742077697468647261772073696e6365207468652063616d7061696760008201527f6e73206973207374696c6c206163746976652e00000000000000000000000000602082015250565b7f4f776e61626c653a2063616c6c6572206973206e6f7420746865206f776e6572600082015250565b7f496e697469616c697a61626c653a20636f6e7472616374206973206e6f74206960008201527f6e697469616c697a696e67000000000000000000000000000000000000000000602082015250565b6002811061268b5761268a6123ff565b5b50565b61269781612256565b81146126a257600080fd5b50565b6126ae816122a7565b81146126b957600080fd5b5056fea26469706673582212206396bf495d2cc63b1da4584239aeb4470dd31bd9280748b1ceb3d12d314e83e864736f6c63430008040033",
  "immutableReferences": {},
  "source": "// SPDX-License-Identifier: MIT\npragma solidity 0.8.4;\n\nimport \"@openzeppelin/contracts-upgradeable/proxy/utils/Initializable.sol\";\nimport \"@openzeppelin/contracts-upgradeable/access/OwnableUpgradeable.sol\";\n\n\ncontract FundRaiseContract is Initializable, OwnableUpgradeable {\n    uint256 public campaignId;\n    uint256 private userId;\n\n    enum FundRaiseStatus {\n        Active,\n        Completed\n    }\n\n    struct FundRaiser {\n        address userAddress;\n        uint256 id;\n        uint256[] campaignIds;\n        bool isRegistered;\n    }\n    mapping(address => FundRaiser) public fundRaisers;\n\n    struct Campaign {\n        uint256 id;\n        uint256 goal;\n        uint256 currentAmount;\n        uint256 expireOf; // in seconds\n        string description;\n        string title;\n        string ipfsHash;\n        FundRaiseStatus status;\n    }\n    mapping(uint256 => Campaign) public campaigns;\n\n    event FundRaiseCreate(address indexed owner, uint256 campaignId);\n    event FundRaiseDonate(\n        address indexed donator,\n        uint256 campaignId,\n        uint256 amount\n    );\n    event FundRaiseWithdraw(\n        address indexed owner,\n        uint256 campaignId,\n        uint256 amount\n    );\n\n    function initialize() public virtual initializer {\n        campaignId = 0;\n        userId = 0;\n        __Ownable_init();\n    }\n\n    function createCampaign(\n        uint256 expireOf,\n        uint256 goal,\n        string memory title,\n        string memory description,\n        string memory ipfsHash\n    ) public {\n        Campaign memory _campaign = Campaign(\n            campaignId,\n            goal,\n            0,\n            expireOf,\n            description,\n            title,\n            ipfsHash,\n            FundRaiseStatus.Active\n        );\n\n        if (!fundRaisers[msg.sender].isRegistered) {\n            fundRaisers[msg.sender].userAddress = msg.sender;\n            fundRaisers[msg.sender].id = userId;\n            fundRaisers[msg.sender].campaignIds.push(campaignId);\n            fundRaisers[msg.sender].isRegistered = true;\n\n            userId += 1;\n        } else {\n            fundRaisers[msg.sender].campaignIds.push(campaignId);\n        }\n\n        campaigns[campaignId] = _campaign;\n\n        campaignId += 1;\n\n        emit FundRaiseCreate(msg.sender, campaignId);\n    }\n\n    function donate(uint256 _campaignId) public payable {\n        require(\n            block.timestamp < campaigns[_campaignId].expireOf,\n            \"You cant donate to finished campaigns.\"\n        );\n        \n        campaigns[_campaignId].currentAmount += msg.value;\n        emit FundRaiseDonate(msg.sender, _campaignId, msg.value);\n    }\n\n    function withdraw(uint256 _campaignId) public payable {\n        require(\n            msg.sender == fundRaisers[msg.sender].userAddress,\n            \"Withdrawer not authorized.\"\n        );\n\n        require(\n            block.timestamp > campaigns[_campaignId].expireOf,\n            \"Can't withdraw since the campaigns is still active.\"\n        );\n\n        uint256 accumulatedAmount = campaigns[_campaignId].currentAmount;\n\n        payable(msg.sender).transfer(accumulatedAmount);\n\n        campaigns[_campaignId].status = FundRaiseStatus.Completed;\n        campaigns[_campaignId].expireOf = 0;\n        campaigns[_campaignId].currentAmount = 0;\n\n        emit FundRaiseWithdraw(msg.sender, _campaignId, accumulatedAmount);\n    }\n\n    function getAllCampaignsByAddress()\n        external\n        view\n        returns (Campaign[] memory)\n    {\n        uint256[] memory campaignIds = fundRaisers[msg.sender].campaignIds;\n        Campaign[] memory campaignsByAddress = new Campaign[](\n            campaignIds.length\n        );\n\n        for (uint256 i = 0; i < campaignIds.length; i++) {\n            campaignsByAddress[i] = campaigns[campaignIds[i]];\n        }\n\n        return campaignsByAddress;\n    }\n\n    function getAllCampaigns()\n        external\n        view\n        returns (Campaign[] memory)\n    {\n        uint itemCount = campaignId;\n        Campaign[] memory campaignList = new Campaign[](itemCount);\n        \n        for (uint i = 0; i < itemCount; i++) {\n            Campaign memory currentCandidate = campaigns[i];\n            campaignList[i] = currentCandidate;\n        }\n\n        return campaignList;\n    }\n}\n",
  "sourcePath": "/Users/nikokodzabashev/Code/happy-faces/contracts/FundRaiseContract.sol",
  "compiler": {
    "name": "solc",
    "version": "0.8.4+commit.c7e474f2.Emscripten.clang"
  },
  "schemaVersion": "3.4.7",
  "updatedAt": "2022-06-11T14:12:34.151Z",
  "devdoc": {
    "kind": "dev",
    "methods": {
      "owner()": {
        "details": "Returns the address of the current owner."
      },
      "renounceOwnership()": {
        "details": "Leaves the contract without owner. It will not be possible to call `onlyOwner` functions anymore. Can only be called by the current owner. NOTE: Renouncing ownership will leave the contract without an owner, thereby removing any functionality that is only available to the owner."
      },
      "transferOwnership(address)": {
        "details": "Transfers ownership of the contract to a new account (`newOwner`). Can only be called by the current owner."
      }
    },
    "version": 1
  },
  "userdoc": {
    "kind": "user",
    "methods": {},
    "version": 1
  }
}