{
  "contractName": "FundRaiseContract",
  "abi": [
    {
      "anonymous": false,
      "inputs": [
        {
          "indexed": true,
          "internalType": "address",
          "name": "owner",
          "type": "address"
        },
        {
          "indexed": false,
          "internalType": "uint256",
          "name": "campaignId",
          "type": "uint256"
        }
      ],
      "name": "FundRaiseCreate",
      "type": "event"
    },
    {
      "anonymous": false,
      "inputs": [
        {
          "indexed": true,
          "internalType": "address",
          "name": "donator",
          "type": "address"
        },
        {
          "indexed": false,
          "internalType": "uint256",
          "name": "campaignId",
          "type": "uint256"
        },
        {
          "indexed": false,
          "internalType": "uint256",
          "name": "amount",
          "type": "uint256"
        }
      ],
      "name": "FundRaiseDonate",
      "type": "event"
    },
    {
      "anonymous": false,
      "inputs": [
        {
          "indexed": true,
          "internalType": "address",
          "name": "donator",
          "type": "address"
        },
        {
          "indexed": false,
          "internalType": "string",
          "name": "message",
          "type": "string"
        }
      ],
      "name": "FundRaiseDonateRejected",
      "type": "event"
    },
    {
      "anonymous": false,
      "inputs": [
        {
          "indexed": true,
          "internalType": "address",
          "name": "owner",
          "type": "address"
        },
        {
          "indexed": false,
          "internalType": "uint256",
          "name": "campaignId",
          "type": "uint256"
        },
        {
          "indexed": false,
          "internalType": "uint256",
          "name": "amount",
          "type": "uint256"
        }
      ],
      "name": "FundRaiseWithdraw",
      "type": "event"
    },
    {
      "inputs": [],
      "name": "campaignId",
      "outputs": [
        {
          "internalType": "uint256",
          "name": "",
          "type": "uint256"
        }
      ],
      "stateMutability": "view",
      "type": "function",
      "constant": true
    },
    {
      "inputs": [
        {
          "internalType": "uint256",
          "name": "",
          "type": "uint256"
        }
      ],
      "name": "campaigns",
      "outputs": [
        {
          "internalType": "uint256",
          "name": "id",
          "type": "uint256"
        },
        {
          "internalType": "uint256",
          "name": "goal",
          "type": "uint256"
        },
        {
          "internalType": "uint256",
          "name": "currentAmount",
          "type": "uint256"
        },
        {
          "internalType": "uint256",
          "name": "expireOf",
          "type": "uint256"
        },
        {
          "internalType": "string",
          "name": "description",
          "type": "string"
        },
        {
          "internalType": "string",
          "name": "title",
          "type": "string"
        },
        {
          "internalType": "string",
          "name": "ipfsHash",
          "type": "string"
        },
        {
          "internalType": "enum FundRaiseContract.FundRaiseStatus",
          "name": "status",
          "type": "uint8"
        }
      ],
      "stateMutability": "view",
      "type": "function",
      "constant": true
    },
    {
      "inputs": [
        {
          "internalType": "uint256",
          "name": "expireOf",
          "type": "uint256"
        },
        {
          "internalType": "uint256",
          "name": "goal",
          "type": "uint256"
        },
        {
          "internalType": "string",
          "name": "title",
          "type": "string"
        },
        {
          "internalType": "string",
          "name": "description",
          "type": "string"
        },
        {
          "internalType": "string",
          "name": "ipfsHash",
          "type": "string"
        }
      ],
      "name": "createCampaign",
      "outputs": [],
      "stateMutability": "nonpayable",
      "type": "function"
    },
    {
      "inputs": [
        {
          "internalType": "uint256",
          "name": "_campaignId",
          "type": "uint256"
        }
      ],
      "name": "donate",
      "outputs": [],
      "stateMutability": "payable",
      "type": "function",
      "payable": true
    },
    {
      "inputs": [
        {
          "internalType": "uint256",
          "name": "_campaignId",
          "type": "uint256"
        }
      ],
      "name": "withdraw",
      "outputs": [],
      "stateMutability": "payable",
      "type": "function",
      "payable": true
    },
    {
      "inputs": [],
      "name": "getAllCampaignsByAddress",
      "outputs": [
        {
          "components": [
            {
              "internalType": "uint256",
              "name": "id",
              "type": "uint256"
            },
            {
              "internalType": "uint256",
              "name": "goal",
              "type": "uint256"
            },
            {
              "internalType": "uint256",
              "name": "currentAmount",
              "type": "uint256"
            },
            {
              "internalType": "uint256",
              "name": "expireOf",
              "type": "uint256"
            },
            {
              "internalType": "string",
              "name": "description",
              "type": "string"
            },
            {
              "internalType": "string",
              "name": "title",
              "type": "string"
            },
            {
              "internalType": "string",
              "name": "ipfsHash",
              "type": "string"
            },
            {
              "internalType": "enum FundRaiseContract.FundRaiseStatus",
              "name": "status",
              "type": "uint8"
            }
          ],
          "internalType": "struct FundRaiseContract.Campaign[]",
          "name": "",
          "type": "tuple[]"
        }
      ],
      "stateMutability": "view",
      "type": "function",
      "constant": true
    },
    {
      "inputs": [
        {
          "internalType": "uint256",
          "name": "_resultsPerPage",
          "type": "uint256"
        },
        {
          "internalType": "uint256",
          "name": "_page",
          "type": "uint256"
        }
      ],
      "name": "getAllCampaigns",
      "outputs": [
        {
          "components": [
            {
              "internalType": "uint256",
              "name": "id",
              "type": "uint256"
            },
            {
              "internalType": "uint256",
              "name": "goal",
              "type": "uint256"
            },
            {
              "internalType": "uint256",
              "name": "currentAmount",
              "type": "uint256"
            },
            {
              "internalType": "uint256",
              "name": "expireOf",
              "type": "uint256"
            },
            {
              "internalType": "string",
              "name": "description",
              "type": "string"
            },
            {
              "internalType": "string",
              "name": "title",
              "type": "string"
            },
            {
              "internalType": "string",
              "name": "ipfsHash",
              "type": "string"
            },
            {
              "internalType": "enum FundRaiseContract.FundRaiseStatus",
              "name": "status",
              "type": "uint8"
            }
          ],
          "internalType": "struct FundRaiseContract.Campaign[]",
          "name": "",
          "type": "tuple[]"
        }
      ],
      "stateMutability": "view",
      "type": "function",
      "constant": true
    }
  ],
  "bytecode": "0x608060405260008055600060015534801561001957600080fd5b50611f54806100296000396000f3fe6080604052600436106100705760003560e01c806371572a561161004e57806371572a56146101125780638ed5b0fc1461013b578063c8e30e9414610166578063f14faf6f1461019157610070565b8063141961bc14610075578063253343e7146100b95780632e1a7d4d146100f6575b600080fd5b34801561008157600080fd5b5061009c600480360381019061009791906115c7565b6101ad565b6040516100b0989796959493929190611a0f565b60405180910390f35b3480156100c557600080fd5b506100e060048036038101906100db91906115f0565b61039a565b6040516100ed9190611949565b60405180910390f35b610110600480360381019061010b91906115c7565b610760565b005b34801561011e57600080fd5b506101396004803603810190610134919061162c565b6109db565b005b34801561014757600080fd5b50610150610e20565b60405161015d91906119cb565b60405180910390f35b34801561017257600080fd5b5061017b610e26565b6040516101889190611949565b60405180910390f35b6101ab60048036038101906101a691906115c7565b61126c565b005b60036020528060005260406000206000915090508060000154908060010154908060020154908060030154908060040180546101e890611cb3565b80601f016020809104026020016040519081016040528092919081815260200182805461021490611cb3565b80156102615780601f1061023657610100808354040283529160200191610261565b820191906000526020600020905b81548152906001019060200180831161024457829003601f168201915b50505050509080600501805461027690611cb3565b80601f01602080910402602001604051908101604052809291908181526020018280546102a290611cb3565b80156102ef5780601f106102c4576101008083540402835291602001916102ef565b820191906000526020600020905b8154815290600101906020018083116102d257829003601f168201915b50505050509080600601805461030490611cb3565b80601f016020809104026020016040519081016040528092919081815260200182805461033090611cb3565b801561037d5780601f106103525761010080835404028352916020019161037d565b820191906000526020600020905b81548152906001019060200180831161036057829003601f168201915b5050505050908060070160009054906101000a900460ff16905088565b60606000808467ffffffffffffffff8111156103df577f4e487b7100000000000000000000000000000000000000000000000000000000600052604160045260246000fd5b60405190808252806020026020018201604052801561041857816020015b6104056113dd565b8152602001906001900390816103fd5790505b509050600085858761042a9190611bb4565b6104349190611c0e565b90505b84866104439190611bb4565b81101561075457600182516104589190611c0e565b8110156107335760036000828861046f9190611b5e565b815260200190815260200160002060405180610100016040529081600082015481526020016001820154815260200160028201548152602001600382015481526020016004820180546104c190611cb3565b80601f01602080910402602001604051908101604052809291908181526020018280546104ed90611cb3565b801561053a5780601f1061050f5761010080835404028352916020019161053a565b820191906000526020600020905b81548152906001019060200180831161051d57829003601f168201915b5050505050815260200160058201805461055390611cb3565b80601f016020809104026020016040519081016040528092919081815260200182805461057f90611cb3565b80156105cc5780601f106105a1576101008083540402835291602001916105cc565b820191906000526020600020905b8154815290600101906020018083116105af57829003601f168201915b505050505081526020016006820180546105e590611cb3565b80601f016020809104026020016040519081016040528092919081815260200182805461061190611cb3565b801561065e5780601f106106335761010080835404028352916020019161065e565b820191906000526020600020905b81548152906001019060200180831161064157829003601f168201915b505050505081526020016007820160009054906101000a900460ff1660018111156106b2577f4e487b7100000000000000000000000000000000000000000000000000000000600052602160045260246000fd5b60018111156106ea577f4e487b7100000000000000000000000000000000000000000000000000000000600052602160045260246000fd5b81525050828481518110610727577f4e487b7100000000000000000000000000000000000000000000000000000000600052603260045260246000fd5b60200260200101819052505b828061073e90611d16565b935050808061074c90611d16565b915050610437565b50809250505092915050565b600260003373ffffffffffffffffffffffffffffffffffffffff1673ffffffffffffffffffffffffffffffffffffffff16815260200190815260200160002060000160009054906101000a900473ffffffffffffffffffffffffffffffffffffffff1673ffffffffffffffffffffffffffffffffffffffff163373ffffffffffffffffffffffffffffffffffffffff1614610830576040517f08c379a00000000000000000000000000000000000000000000000000000000081526004016108279061196b565b60405180910390fd5b60036000828152602001908152602001600020600301544210610888576040517f08c379a000000000000000000000000000000000000000000000000000000000815260040161087f906119ab565b60405180910390fd5b6000600360008381526020019081526020016000206002015490503373ffffffffffffffffffffffffffffffffffffffff166108fc829081150290604051600060405180830381858888f193505050501580156108e9573d6000803e3d6000fd5b5060016003600084815260200190815260200160002060070160006101000a81548160ff0219169083600181111561094a577f4e487b7100000000000000000000000000000000000000000000000000000000600052602160045260246000fd5b021790555060006003600084815260200190815260200160002060030181905550600060036000848152602001908152602001600020600201819055503373ffffffffffffffffffffffffffffffffffffffff167fd34468bc94161960698dc5449c13bf27f2d7ec9fa5c0e9cc6b0ffdee29a2baec83836040516109cf9291906119e6565b60405180910390a25050565b60006040518061010001604052806000548152602001868152602001600081526020014288610a0a9190611b5e565b815260200184815260200185815260200183815260200160006001811115610a5b577f4e487b7100000000000000000000000000000000000000000000000000000000600052602160045260246000fd5b815250905060001515600260003373ffffffffffffffffffffffffffffffffffffffff1673ffffffffffffffffffffffffffffffffffffffff16815260200190815260200160002060030160009054906101000a900460ff1615151415610c565760405180608001604052803373ffffffffffffffffffffffffffffffffffffffff168152602001600154815260200160005467ffffffffffffffff811115610b2d577f4e487b7100000000000000000000000000000000000000000000000000000000600052604160045260246000fd5b604051908082528060200260200182016040528015610b5b5781602001602082028036833780820191505090505b50815260200160011515815250600260003373ffffffffffffffffffffffffffffffffffffffff1673ffffffffffffffffffffffffffffffffffffffff16815260200190815260200160002060008201518160000160006101000a81548173ffffffffffffffffffffffffffffffffffffffff021916908373ffffffffffffffffffffffffffffffffffffffff160217905550602082015181600101556040820151816002019080519060200190610c1492919061145a565b5060608201518160030160006101000a81548160ff0219169083151502179055509050506001806000828254610c4a9190611b5e565b92505081905550610cc2565b600260003373ffffffffffffffffffffffffffffffffffffffff1673ffffffffffffffffffffffffffffffffffffffff16815260200190815260200160002060020160005490806001815401808255809150506001900390600052602060002001600090919091909150555b806003600080548152602001908152602001600020600082015181600001556020820151816001015560408201518160020155606082015181600301556080820151816004019080519060200190610d1b9291906114a7565b5060a0820151816005019080519060200190610d389291906114a7565b5060c0820151816006019080519060200190610d559291906114a7565b5060e08201518160070160006101000a81548160ff02191690836001811115610da7577f4e487b7100000000000000000000000000000000000000000000000000000000600052602160045260246000fd5b02179055509050506001600080828254610dc19190611b5e565b925050819055503373ffffffffffffffffffffffffffffffffffffffff167fc59c2864c121b32ae68d88f0c862e834df52f6d7ffdbe8b900f163e80ef30bb6600054604051610e1091906119cb565b60405180910390a2505050505050565b60005481565b60606000600260003373ffffffffffffffffffffffffffffffffffffffff1673ffffffffffffffffffffffffffffffffffffffff168152602001908152602001600020600201805480602002602001604051908101604052809291908181526020018280548015610eb657602002820191906000526020600020905b815481526020019060010190808311610ea2575b505050505090506000815167ffffffffffffffff811115610f00577f4e487b7100000000000000000000000000000000000000000000000000000000600052604160045260246000fd5b604051908082528060200260200182016040528015610f3957816020015b610f266113dd565b815260200190600190039081610f1e5790505b50905060005b82518110156112635760036000848381518110610f85577f4e487b7100000000000000000000000000000000000000000000000000000000600052603260045260246000fd5b602002602001015181526020019081526020016000206040518061010001604052908160008201548152602001600182015481526020016002820154815260200160038201548152602001600482018054610fdf90611cb3565b80601f016020809104026020016040519081016040528092919081815260200182805461100b90611cb3565b80156110585780601f1061102d57610100808354040283529160200191611058565b820191906000526020600020905b81548152906001019060200180831161103b57829003601f168201915b5050505050815260200160058201805461107190611cb3565b80601f016020809104026020016040519081016040528092919081815260200182805461109d90611cb3565b80156110ea5780601f106110bf576101008083540402835291602001916110ea565b820191906000526020600020905b8154815290600101906020018083116110cd57829003601f168201915b5050505050815260200160068201805461110390611cb3565b80601f016020809104026020016040519081016040528092919081815260200182805461112f90611cb3565b801561117c5780601f106111515761010080835404028352916020019161117c565b820191906000526020600020905b81548152906001019060200180831161115f57829003601f168201915b505050505081526020016007820160009054906101000a900460ff1660018111156111d0577f4e487b7100000000000000000000000000000000000000000000000000000000600052602160045260246000fd5b6001811115611208577f4e487b7100000000000000000000000000000000000000000000000000000000600052602160045260246000fd5b81525050828281518110611245577f4e487b7100000000000000000000000000000000000000000000000000000000600052603260045260246000fd5b6020026020010181905250808061125b90611d16565b915050610f3f565b50809250505090565b600360008281526020019081526020016000206003015442111561135c576000600360008381526020019081526020016000206003018190555060016003600083815260200190815260200160002060070160006101000a81548160ff02191690836001811115611306577f4e487b7100000000000000000000000000000000000000000000000000000000600052602160045260246000fd5b02179055503373ffffffffffffffffffffffffffffffffffffffff167ff579eff1c4e1eb05db6724ebc822dec1f32054c46882b83eefe75004c397363260405161134f9061198b565b60405180910390a26113da565b346003600083815260200190815260200160002060020160008282546113829190611b5e565b925050819055503373ffffffffffffffffffffffffffffffffffffffff167fbce1df33c37f3ed0cbe86fa4c7de89002b38c4bcc70cdd365bd950b8850a856282346040516113d19291906119e6565b60405180910390a25b50565b6040518061010001604052806000815260200160008152602001600081526020016000815260200160608152602001606081526020016060815260200160006001811115611454577f4e487b7100000000000000000000000000000000000000000000000000000000600052602160045260246000fd5b81525090565b828054828255906000526020600020908101928215611496579160200282015b8281111561149557825182559160200191906001019061147a565b5b5090506114a3919061152d565b5090565b8280546114b390611cb3565b90600052602060002090601f0160209004810192826114d5576000855561151c565b82601f106114ee57805160ff191683800117855561151c565b8280016001018555821561151c579182015b8281111561151b578251825591602001919060010190611500565b5b509050611529919061152d565b5090565b5b8082111561154657600081600090555060010161152e565b5090565b600061155d61155884611ac7565b611aa2565b90508281526020810184848401111561157557600080fd5b611580848285611c71565b509392505050565b600082601f83011261159957600080fd5b81356115a984826020860161154a565b91505092915050565b6000813590506115c181611f07565b92915050565b6000602082840312156115d957600080fd5b60006115e7848285016115b2565b91505092915050565b6000806040838503121561160357600080fd5b6000611611858286016115b2565b9250506020611622858286016115b2565b9150509250929050565b600080600080600060a0868803121561164457600080fd5b6000611652888289016115b2565b9550506020611663888289016115b2565b945050604086013567ffffffffffffffff81111561168057600080fd5b61168c88828901611588565b935050606086013567ffffffffffffffff8111156116a957600080fd5b6116b588828901611588565b925050608086013567ffffffffffffffff8111156116d257600080fd5b6116de88828901611588565b9150509295509295909350565b60006116f7838361186d565b905092915050565b600061170a82611b08565b6117148185611b2b565b93508360208202850161172685611af8565b8060005b85811015611762578484038952815161174385826116eb565b945061174e83611b1e565b925060208a0199505060018101905061172a565b50829750879550505050505092915050565b61177d81611c5f565b82525050565b61178c81611c5f565b82525050565b600061179d82611b13565b6117a78185611b3c565b93506117b7818560208601611c80565b6117c081611e1b565b840191505092915050565b60006117d682611b13565b6117e08185611b4d565b93506117f0818560208601611c80565b6117f981611e1b565b840191505092915050565b6000611811601a83611b4d565b915061181c82611e2c565b602082019050919050565b6000611834602683611b4d565b915061183f82611e55565b604082019050919050565b6000611857603383611b4d565b915061186282611ea4565b604082019050919050565b600061010083016000830151611886600086018261192b565b506020830151611899602086018261192b565b5060408301516118ac604086018261192b565b5060608301516118bf606086018261192b565b50608083015184820360808601526118d78282611792565b91505060a083015184820360a08601526118f18282611792565b91505060c083015184820360c086015261190b8282611792565b91505060e083015161192060e0860182611774565b508091505092915050565b61193481611c55565b82525050565b61194381611c55565b82525050565b6000602082019050818103600083015261196381846116ff565b905092915050565b6000602082019050818103600083015261198481611804565b9050919050565b600060208201905081810360008301526119a481611827565b9050919050565b600060208201905081810360008301526119c48161184a565b9050919050565b60006020820190506119e0600083018461193a565b92915050565b60006040820190506119fb600083018561193a565b611a08602083018461193a565b9392505050565b600061010082019050611a25600083018b61193a565b611a32602083018a61193a565b611a3f604083018961193a565b611a4c606083018861193a565b8181036080830152611a5e81876117cb565b905081810360a0830152611a7281866117cb565b905081810360c0830152611a8681856117cb565b9050611a9560e0830184611783565b9998505050505050505050565b6000611aac611abd565b9050611ab88282611ce5565b919050565b6000604051905090565b600067ffffffffffffffff821115611ae257611ae1611dec565b5b611aeb82611e1b565b9050602081019050919050565b6000819050602082019050919050565b600081519050919050565b600081519050919050565b6000602082019050919050565b600082825260208201905092915050565b600082825260208201905092915050565b600082825260208201905092915050565b6000611b6982611c55565b9150611b7483611c55565b9250827fffffffffffffffffffffffffffffffffffffffffffffffffffffffffffffffff03821115611ba957611ba8611d5f565b5b828201905092915050565b6000611bbf82611c55565b9150611bca83611c55565b9250817fffffffffffffffffffffffffffffffffffffffffffffffffffffffffffffffff0483118215151615611c0357611c02611d5f565b5b828202905092915050565b6000611c1982611c55565b9150611c2483611c55565b925082821015611c3757611c36611d5f565b5b828203905092915050565b6000819050611c5082611ef3565b919050565b6000819050919050565b6000611c6a82611c42565b9050919050565b82818337600083830152505050565b60005b83811015611c9e578082015181840152602081019050611c83565b83811115611cad576000848401525b50505050565b60006002820490506001821680611ccb57607f821691505b60208210811415611cdf57611cde611dbd565b5b50919050565b611cee82611e1b565b810181811067ffffffffffffffff82111715611d0d57611d0c611dec565b5b80604052505050565b6000611d2182611c55565b91507fffffffffffffffffffffffffffffffffffffffffffffffffffffffffffffffff821415611d5457611d53611d5f565b5b600182019050919050565b7f4e487b7100000000000000000000000000000000000000000000000000000000600052601160045260246000fd5b7f4e487b7100000000000000000000000000000000000000000000000000000000600052602160045260246000fd5b7f4e487b7100000000000000000000000000000000000000000000000000000000600052602260045260246000fd5b7f4e487b7100000000000000000000000000000000000000000000000000000000600052604160045260246000fd5b6000601f19601f8301169050919050565b7f57697468647261776572206e6f7420617574686f72697a65642e000000000000600082015250565b7f596f752063616e7420646f6e61746520746f2066696e69736865642063616d7060008201527f6169676e732e0000000000000000000000000000000000000000000000000000602082015250565b7f43616e27742077697468647261772073696e6365207468652063616d7061696760008201527f6e73206973207374696c6c206163746976652e00000000000000000000000000602082015250565b60028110611f0457611f03611d8e565b5b50565b611f1081611c55565b8114611f1b57600080fd5b5056fea26469706673582212208e54abf7d990ba388a1a7063d485bee01f5f42bd107cbcb8ca9bfb3cf95fae6b64736f6c63430008040033",
  "immutableReferences": {},
  "source": "// SPDX-License-Identifier: MIT\npragma solidity >=0.4.22 <0.9.0;\n\ncontract FundRaiseContract {\n    uint256 public campaignId = 0;\n    uint256 private userId = 0;\n\n    enum FundRaiseStatus {\n        Active,\n        Completed\n    }\n\n    struct FundRaiser {\n        address userAddress;\n        uint256 id;\n        uint256[] campaignIds;\n        bool isRegistered;\n    }\n    mapping(address => FundRaiser) fundRaisers;\n\n    struct Campaign {\n        uint256 id;\n        uint256 goal;\n        uint256 currentAmount;\n        uint256 expireOf; // in seconds\n        string description;\n        string title;\n        string ipfsHash;\n        FundRaiseStatus status;\n    }\n    mapping(uint256 => Campaign) public campaigns;\n\n    event FundRaiseCreate(address indexed owner, uint256 campaignId);\n    event FundRaiseDonate(\n        address indexed donator,\n        uint256 campaignId,\n        uint256 amount\n    );\n    event FundRaiseDonateRejected(address indexed donator, string message);\n    event FundRaiseWithdraw(\n        address indexed owner,\n        uint256 campaignId,\n        uint256 amount\n    );\n\n    function createCampaign(\n        uint256 expireOf,\n        uint256 goal,\n        string memory title,\n        string memory description,\n        string memory ipfsHash\n    ) public {\n        Campaign memory _campaign = Campaign(\n            campaignId,\n            goal,\n            0,\n            expireOf + block.timestamp,\n            description,\n            title,\n            ipfsHash,\n            FundRaiseStatus.Active\n        );\n\n        if (fundRaisers[msg.sender].isRegistered == false) {\n            fundRaisers[msg.sender] = FundRaiser(\n                msg.sender,\n                userId,\n                new uint256[](campaignId),\n                true\n            );\n            userId += 1;\n        } else {\n            fundRaisers[msg.sender].campaignIds.push(campaignId);\n        }\n\n        campaigns[campaignId] = _campaign;\n\n        campaignId += 1;\n\n        emit FundRaiseCreate(msg.sender, campaignId);\n    }\n\n    function donate(uint256 _campaignId) public payable {\n        if (block.timestamp > campaigns[_campaignId].expireOf) {\n            campaigns[_campaignId].expireOf = 0;\n            campaigns[_campaignId].status = FundRaiseStatus.Completed;\n            emit FundRaiseDonateRejected(\n                msg.sender,\n                \"You cant donate to finished campaigns.\"\n            );\n        } else {\n            campaigns[_campaignId].currentAmount += msg.value;\n            emit FundRaiseDonate(msg.sender, _campaignId, msg.value);\n        }\n    }\n\n    function withdraw(uint256 _campaignId) public payable {\n        require(\n            msg.sender == fundRaisers[msg.sender].userAddress,\n            \"Withdrawer not authorized.\"\n        );\n\n        require(\n            block.timestamp < campaigns[_campaignId].expireOf,\n            \"Can't withdraw since the campaigns is still active.\"\n        );\n\n        uint256 accumulatedAmount = campaigns[_campaignId].currentAmount;\n\n        payable(msg.sender).transfer(accumulatedAmount);\n\n        campaigns[_campaignId].status = FundRaiseStatus.Completed;\n        campaigns[_campaignId].expireOf = 0;\n        campaigns[_campaignId].currentAmount = 0;\n\n        emit FundRaiseWithdraw(msg.sender, _campaignId, accumulatedAmount);\n    }\n\n    function getAllCampaignsByAddress()\n        external\n        view\n        returns (Campaign[] memory)\n    {\n        uint256[] memory campaignIds = fundRaisers[msg.sender].campaignIds;\n        Campaign[] memory campaignsByAddress = new Campaign[](\n            campaignIds.length\n        );\n\n        for (uint256 i = 0; i < campaignIds.length; i++) {\n            campaignsByAddress[i] = campaigns[campaignIds[i]];\n        }\n\n        return campaignsByAddress;\n    }\n\n    function getAllCampaigns(uint256 _resultsPerPage, uint256 _page)\n        external\n        view\n        returns (Campaign[] memory)\n    {\n        uint256 _returnCounter = 0;\n\n        Campaign[] memory _campaigns = new Campaign[](_resultsPerPage);\n\n        for (\n            uint256 i = _resultsPerPage * _page - _resultsPerPage;\n            i < _resultsPerPage * _page;\n            i++\n        ) {\n            if (i < _campaigns.length - 1) {\n                _campaigns[_returnCounter] = campaigns[_resultsPerPage + i];\n            }\n            _returnCounter++;\n        }\n\n        return _campaigns;\n    }\n}\n",
  "sourcePath": "/home/nikokodzhabashev/Code/happy-faces/contracts/FundRaiseContract.sol",
  "compiler": {
    "name": "solc",
    "version": "0.8.4+commit.c7e474f2.Emscripten.clang"
  },
  "schemaVersion": "3.4.3",
  "updatedAt": "2021-12-29T20:58:04.012Z",
  "networkType": "ethereum",
  "devdoc": {
    "kind": "dev",
    "methods": {},
    "version": 1
  },
  "userdoc": {
    "kind": "user",
    "methods": {},
    "version": 1
  }
}