{
  "contractName": "FundRaiseContract",
  "abi": [
    {
      "anonymous": false,
      "inputs": [
        {
          "indexed": true,
          "internalType": "address",
          "name": "owner",
          "type": "address"
        },
        {
          "indexed": false,
          "internalType": "uint256",
          "name": "campaignId",
          "type": "uint256"
        }
      ],
      "name": "FundRaiseCreate",
      "type": "event"
    },
    {
      "anonymous": false,
      "inputs": [
        {
          "indexed": true,
          "internalType": "address",
          "name": "donator",
          "type": "address"
        },
        {
          "indexed": false,
          "internalType": "uint256",
          "name": "campaignId",
          "type": "uint256"
        },
        {
          "indexed": false,
          "internalType": "uint256",
          "name": "amount",
          "type": "uint256"
        }
      ],
      "name": "FundRaiseDonate",
      "type": "event"
    },
    {
      "anonymous": false,
      "inputs": [
        {
          "indexed": true,
          "internalType": "address",
          "name": "owner",
          "type": "address"
        },
        {
          "indexed": false,
          "internalType": "uint256",
          "name": "campaignId",
          "type": "uint256"
        },
        {
          "indexed": false,
          "internalType": "uint256",
          "name": "amount",
          "type": "uint256"
        }
      ],
      "name": "FundRaiseWithdraw",
      "type": "event"
    },
    {
      "anonymous": false,
      "inputs": [
        {
          "indexed": false,
          "internalType": "uint8",
          "name": "version",
          "type": "uint8"
        }
      ],
      "name": "Initialized",
      "type": "event"
    },
    {
      "inputs": [],
      "name": "campaignId",
      "outputs": [
        {
          "internalType": "uint256",
          "name": "",
          "type": "uint256"
        }
      ],
      "stateMutability": "view",
      "type": "function",
      "constant": true
    },
    {
      "inputs": [
        {
          "internalType": "uint256",
          "name": "",
          "type": "uint256"
        }
      ],
      "name": "campaigns",
      "outputs": [
        {
          "internalType": "uint256",
          "name": "id",
          "type": "uint256"
        },
        {
          "internalType": "uint256",
          "name": "goal",
          "type": "uint256"
        },
        {
          "internalType": "uint256",
          "name": "currentAmount",
          "type": "uint256"
        },
        {
          "internalType": "uint256",
          "name": "expireOf",
          "type": "uint256"
        },
        {
          "internalType": "string",
          "name": "description",
          "type": "string"
        },
        {
          "internalType": "string",
          "name": "title",
          "type": "string"
        },
        {
          "internalType": "string",
          "name": "ipfsHash",
          "type": "string"
        },
        {
          "internalType": "enum FundRaiseContract.FundRaiseStatus",
          "name": "status",
          "type": "uint8"
        }
      ],
      "stateMutability": "view",
      "type": "function",
      "constant": true
    },
    {
      "inputs": [
        {
          "internalType": "address",
          "name": "",
          "type": "address"
        }
      ],
      "name": "fundRaisers",
      "outputs": [
        {
          "internalType": "address",
          "name": "userAddress",
          "type": "address"
        },
        {
          "internalType": "uint256",
          "name": "id",
          "type": "uint256"
        },
        {
          "internalType": "bool",
          "name": "isRegistered",
          "type": "bool"
        }
      ],
      "stateMutability": "view",
      "type": "function",
      "constant": true
    },
    {
      "inputs": [],
      "name": "initialize",
      "outputs": [],
      "stateMutability": "nonpayable",
      "type": "function"
    },
    {
      "inputs": [
        {
          "internalType": "uint256",
          "name": "expireOf",
          "type": "uint256"
        },
        {
          "internalType": "uint256",
          "name": "goal",
          "type": "uint256"
        },
        {
          "internalType": "string",
          "name": "title",
          "type": "string"
        },
        {
          "internalType": "string",
          "name": "description",
          "type": "string"
        },
        {
          "internalType": "string",
          "name": "ipfsHash",
          "type": "string"
        }
      ],
      "name": "createCampaign",
      "outputs": [],
      "stateMutability": "nonpayable",
      "type": "function"
    },
    {
      "inputs": [
        {
          "internalType": "uint256",
          "name": "_campaignId",
          "type": "uint256"
        }
      ],
      "name": "donate",
      "outputs": [],
      "stateMutability": "payable",
      "type": "function",
      "payable": true
    },
    {
      "inputs": [
        {
          "internalType": "uint256",
          "name": "_campaignId",
          "type": "uint256"
        }
      ],
      "name": "withdraw",
      "outputs": [],
      "stateMutability": "payable",
      "type": "function",
      "payable": true
    },
    {
      "inputs": [],
      "name": "getAllCampaignsByAddress",
      "outputs": [
        {
          "components": [
            {
              "internalType": "uint256",
              "name": "id",
              "type": "uint256"
            },
            {
              "internalType": "uint256",
              "name": "goal",
              "type": "uint256"
            },
            {
              "internalType": "uint256",
              "name": "currentAmount",
              "type": "uint256"
            },
            {
              "internalType": "uint256",
              "name": "expireOf",
              "type": "uint256"
            },
            {
              "internalType": "string",
              "name": "description",
              "type": "string"
            },
            {
              "internalType": "string",
              "name": "title",
              "type": "string"
            },
            {
              "internalType": "string",
              "name": "ipfsHash",
              "type": "string"
            },
            {
              "internalType": "enum FundRaiseContract.FundRaiseStatus",
              "name": "status",
              "type": "uint8"
            }
          ],
          "internalType": "struct FundRaiseContract.Campaign[]",
          "name": "",
          "type": "tuple[]"
        }
      ],
      "stateMutability": "view",
      "type": "function",
      "constant": true
    },
    {
      "inputs": [],
      "name": "getAllCampaigns",
      "outputs": [
        {
          "components": [
            {
              "internalType": "uint256",
              "name": "id",
              "type": "uint256"
            },
            {
              "internalType": "uint256",
              "name": "goal",
              "type": "uint256"
            },
            {
              "internalType": "uint256",
              "name": "currentAmount",
              "type": "uint256"
            },
            {
              "internalType": "uint256",
              "name": "expireOf",
              "type": "uint256"
            },
            {
              "internalType": "string",
              "name": "description",
              "type": "string"
            },
            {
              "internalType": "string",
              "name": "title",
              "type": "string"
            },
            {
              "internalType": "string",
              "name": "ipfsHash",
              "type": "string"
            },
            {
              "internalType": "enum FundRaiseContract.FundRaiseStatus",
              "name": "status",
              "type": "uint8"
            }
          ],
          "internalType": "struct FundRaiseContract.Campaign[]",
          "name": "",
          "type": "tuple[]"
        }
      ],
      "stateMutability": "view",
      "type": "function",
      "constant": true
    }
  ],
  "bytecode": "0x608060405234801561001057600080fd5b50612180806100206000396000f3fe6080604052600436106100865760003560e01c80638129fc1c116100595780638129fc1c1461015357806386cdf6041461016a5780638ed5b0fc14610195578063c8e30e94146101c0578063f14faf6f146101eb57610086565b8063031a5ee51461008b578063141961bc146100ca5780632e1a7d4d1461010e57806371572a561461012a575b600080fd5b34801561009757600080fd5b506100b260048036038101906100ad919061170f565b610207565b6040516100c193929190611ace565b60405180910390f35b3480156100d657600080fd5b506100f160048036038101906100ec9190611738565b61025e565b604051610105989796959493929190611c06565b60405180910390f35b61012860048036038101906101239190611738565b61044b565b005b34801561013657600080fd5b50610151600480360381019061014c9190611761565b6106c6565b005b34801561015f57600080fd5b50610168610b0e565b005b34801561017657600080fd5b5061017f610baa565b60405161018c9190611b05565b60405180910390f35b3480156101a157600080fd5b506101aa610f26565b6040516101b79190611bc2565b60405180910390f35b3480156101cc57600080fd5b506101d5610f2c565b6040516101e29190611b05565b60405180910390f35b61020560048036038101906102009190611738565b611372565b005b60036020528060005260406000206000915090508060000160009054906101000a900473ffffffffffffffffffffffffffffffffffffffff16908060010154908060030160009054906101000a900460ff16905083565b600460205280600052604060002060009150905080600001549080600101549080600201549080600301549080600401805461029990611e79565b80601f01602080910402602001604051908101604052809291908181526020018280546102c590611e79565b80156103125780601f106102e757610100808354040283529160200191610312565b820191906000526020600020905b8154815290600101906020018083116102f557829003601f168201915b50505050509080600501805461032790611e79565b80601f016020809104026020016040519081016040528092919081815260200182805461035390611e79565b80156103a05780601f10610375576101008083540402835291602001916103a0565b820191906000526020600020905b81548152906001019060200180831161038357829003601f168201915b5050505050908060060180546103b590611e79565b80601f01602080910402602001604051908101604052809291908181526020018280546103e190611e79565b801561042e5780601f106104035761010080835404028352916020019161042e565b820191906000526020600020905b81548152906001019060200180831161041157829003601f168201915b5050505050908060070160009054906101000a900460ff16905088565b600360003373ffffffffffffffffffffffffffffffffffffffff1673ffffffffffffffffffffffffffffffffffffffff16815260200190815260200160002060000160009054906101000a900473ffffffffffffffffffffffffffffffffffffffff1673ffffffffffffffffffffffffffffffffffffffff163373ffffffffffffffffffffffffffffffffffffffff161461051b576040517f08c379a000000000000000000000000000000000000000000000000000000000815260040161051290611b42565b60405180910390fd5b60046000828152602001908152602001600020600301544211610573576040517f08c379a000000000000000000000000000000000000000000000000000000000815260040161056a90611ba2565b60405180910390fd5b6000600460008381526020019081526020016000206002015490503373ffffffffffffffffffffffffffffffffffffffff166108fc829081150290604051600060405180830381858888f193505050501580156105d4573d6000803e3d6000fd5b5060016004600084815260200190815260200160002060070160006101000a81548160ff02191690836001811115610635577f4e487b7100000000000000000000000000000000000000000000000000000000600052602160045260246000fd5b021790555060006004600084815260200190815260200160002060030181905550600060046000848152602001908152602001600020600201819055503373ffffffffffffffffffffffffffffffffffffffff167fd34468bc94161960698dc5449c13bf27f2d7ec9fa5c0e9cc6b0ffdee29a2baec83836040516106ba929190611bdd565b60405180910390a25050565b60006040518061010001604052806001548152602001868152602001600081526020018781526020018481526020018581526020018381526020016000600181111561073b577f4e487b7100000000000000000000000000000000000000000000000000000000600052602160045260246000fd5b8152509050600360003373ffffffffffffffffffffffffffffffffffffffff1673ffffffffffffffffffffffffffffffffffffffff16815260200190815260200160002060030160009054906101000a900460ff166109435733600360003373ffffffffffffffffffffffffffffffffffffffff1673ffffffffffffffffffffffffffffffffffffffff16815260200190815260200160002060000160006101000a81548173ffffffffffffffffffffffffffffffffffffffff021916908373ffffffffffffffffffffffffffffffffffffffff160217905550600254600360003373ffffffffffffffffffffffffffffffffffffffff1673ffffffffffffffffffffffffffffffffffffffff16815260200190815260200160002060010181905550600360003373ffffffffffffffffffffffffffffffffffffffff1673ffffffffffffffffffffffffffffffffffffffff16815260200190815260200160002060020160015490806001815401808255809150506001900390600052602060002001600090919091909150556001600360003373ffffffffffffffffffffffffffffffffffffffff1673ffffffffffffffffffffffffffffffffffffffff16815260200190815260200160002060030160006101000a81548160ff0219169083151502179055506001600260008282546109379190611d55565b925050819055506109af565b600360003373ffffffffffffffffffffffffffffffffffffffff1673ffffffffffffffffffffffffffffffffffffffff16815260200190815260200160002060020160015490806001815401808255809150506001900390600052602060002001600090919091909150555b80600460006001548152602001908152602001600020600082015181600001556020820151816001015560408201518160020155606082015181600301556080820151816004019080519060200190610a0992919061155d565b5060a0820151816005019080519060200190610a2692919061155d565b5060c0820151816006019080519060200190610a4392919061155d565b5060e08201518160070160006101000a81548160ff02191690836001811115610a95577f4e487b7100000000000000000000000000000000000000000000000000000000600052602160045260246000fd5b02179055509050506001806000828254610aaf9190611d55565b925050819055503373ffffffffffffffffffffffffffffffffffffffff167fc59c2864c121b32ae68d88f0c862e834df52f6d7ffdbe8b900f163e80ef30bb6600154604051610afe9190611bc2565b60405180910390a2505050505050565b6000610b1a600161144a565b90508015610b3e576001600060016101000a81548160ff0219169083151502179055505b600060018190555060006002819055508015610ba75760008060016101000a81548160ff0219169083151502179055507f7f26b83ff96e1f2b6a682f133852f6798a09c465da95921460cefb38474024986001604051610b9e9190611b27565b60405180910390a15b50565b60606000600154905060008167ffffffffffffffff811115610bf5577f4e487b7100000000000000000000000000000000000000000000000000000000600052604160045260246000fd5b604051908082528060200260200182016040528015610c2e57816020015b610c1b6115e3565b815260200190600190039081610c135790505b50905060005b82811015610f1d576000600460008381526020019081526020016000206040518061010001604052908160008201548152602001600182015481526020016002820154815260200160038201548152602001600482018054610c9590611e79565b80601f0160208091040260200160405190810160405280929190818152602001828054610cc190611e79565b8015610d0e5780601f10610ce357610100808354040283529160200191610d0e565b820191906000526020600020905b815481529060010190602001808311610cf157829003601f168201915b50505050508152602001600582018054610d2790611e79565b80601f0160208091040260200160405190810160405280929190818152602001828054610d5390611e79565b8015610da05780601f10610d7557610100808354040283529160200191610da0565b820191906000526020600020905b815481529060010190602001808311610d8357829003601f168201915b50505050508152602001600682018054610db990611e79565b80601f0160208091040260200160405190810160405280929190818152602001828054610de590611e79565b8015610e325780601f10610e0757610100808354040283529160200191610e32565b820191906000526020600020905b815481529060010190602001808311610e1557829003601f168201915b505050505081526020016007820160009054906101000a900460ff166001811115610e86577f4e487b7100000000000000000000000000000000000000000000000000000000600052602160045260246000fd5b6001811115610ebe577f4e487b7100000000000000000000000000000000000000000000000000000000600052602160045260246000fd5b81525050905080838381518110610efe577f4e487b7100000000000000000000000000000000000000000000000000000000600052603260045260246000fd5b6020026020010181905250508080610f1590611edc565b915050610c34565b50809250505090565b60015481565b60606000600360003373ffffffffffffffffffffffffffffffffffffffff1673ffffffffffffffffffffffffffffffffffffffff168152602001908152602001600020600201805480602002602001604051908101604052809291908181526020018280548015610fbc57602002820191906000526020600020905b815481526020019060010190808311610fa8575b505050505090506000815167ffffffffffffffff811115611006577f4e487b7100000000000000000000000000000000000000000000000000000000600052604160045260246000fd5b60405190808252806020026020018201604052801561103f57816020015b61102c6115e3565b8152602001906001900390816110245790505b50905060005b8251811015611369576004600084838151811061108b577f4e487b7100000000000000000000000000000000000000000000000000000000600052603260045260246000fd5b6020026020010151815260200190815260200160002060405180610100016040529081600082015481526020016001820154815260200160028201548152602001600382015481526020016004820180546110e590611e79565b80601f016020809104026020016040519081016040528092919081815260200182805461111190611e79565b801561115e5780601f106111335761010080835404028352916020019161115e565b820191906000526020600020905b81548152906001019060200180831161114157829003601f168201915b5050505050815260200160058201805461117790611e79565b80601f01602080910402602001604051908101604052809291908181526020018280546111a390611e79565b80156111f05780601f106111c5576101008083540402835291602001916111f0565b820191906000526020600020905b8154815290600101906020018083116111d357829003601f168201915b5050505050815260200160068201805461120990611e79565b80601f016020809104026020016040519081016040528092919081815260200182805461123590611e79565b80156112825780601f1061125757610100808354040283529160200191611282565b820191906000526020600020905b81548152906001019060200180831161126557829003601f168201915b505050505081526020016007820160009054906101000a900460ff1660018111156112d6577f4e487b7100000000000000000000000000000000000000000000000000000000600052602160045260246000fd5b600181111561130e577f4e487b7100000000000000000000000000000000000000000000000000000000600052602160045260246000fd5b8152505082828151811061134b577f4e487b7100000000000000000000000000000000000000000000000000000000600052603260045260246000fd5b6020026020010181905250808061136190611edc565b915050611045565b50809250505090565b600460008281526020019081526020016000206003015442106113ca576040517f08c379a00000000000000000000000000000000000000000000000000000000081526004016113c190611b62565b60405180910390fd5b346004600083815260200190815260200160002060020160008282546113f09190611d55565b925050819055503373ffffffffffffffffffffffffffffffffffffffff167fbce1df33c37f3ed0cbe86fa4c7de89002b38c4bcc70cdd365bd950b8850a8562823460405161143f929190611bdd565b60405180910390a250565b60008060019054906101000a900460ff16156114c15760018260ff1614801561147957506114773061153a565b155b6114b8576040517f08c379a00000000000000000000000000000000000000000000000000000000081526004016114af90611b82565b60405180910390fd5b60009050611535565b8160ff1660008054906101000a900460ff1660ff1610611516576040517f08c379a000000000000000000000000000000000000000000000000000000000815260040161150d90611b82565b60405180910390fd5b816000806101000a81548160ff021916908360ff160217905550600190505b919050565b6000808273ffffffffffffffffffffffffffffffffffffffff163b119050919050565b82805461156990611e79565b90600052602060002090601f01602090048101928261158b57600085556115d2565b82601f106115a457805160ff19168380011785556115d2565b828001600101855582156115d2579182015b828111156115d15782518255916020019190600101906115b6565b5b5090506115df9190611660565b5090565b604051806101000160405280600081526020016000815260200160008152602001600081526020016060815260200160608152602001606081526020016000600181111561165a577f4e487b7100000000000000000000000000000000000000000000000000000000600052602160045260246000fd5b81525090565b5b80821115611679576000816000905550600101611661565b5090565b600061169061168b84611cbe565b611c99565b9050828152602081018484840111156116a857600080fd5b6116b3848285611e37565b509392505050565b6000813590506116ca8161211c565b92915050565b600082601f8301126116e157600080fd5b81356116f184826020860161167d565b91505092915050565b60008135905061170981612133565b92915050565b60006020828403121561172157600080fd5b600061172f848285016116bb565b91505092915050565b60006020828403121561174a57600080fd5b6000611758848285016116fa565b91505092915050565b600080600080600060a0868803121561177957600080fd5b6000611787888289016116fa565b9550506020611798888289016116fa565b945050604086013567ffffffffffffffff8111156117b557600080fd5b6117c1888289016116d0565b935050606086013567ffffffffffffffff8111156117de57600080fd5b6117ea888289016116d0565b925050608086013567ffffffffffffffff81111561180757600080fd5b611813888289016116d0565b9150509295509295909350565b600061182c83836119f2565b905092915050565b61183d81611dab565b82525050565b600061184e82611cff565b6118588185611d22565b93508360208202850161186a85611cef565b8060005b858110156118a657848403895281516118878582611820565b945061189283611d15565b925060208a0199505060018101905061186e565b50829750879550505050505092915050565b6118c181611dbd565b82525050565b6118d081611e13565b82525050565b6118df81611e13565b82525050565b6118ee81611e25565b82525050565b60006118ff82611d0a565b6119098185611d33565b9350611919818560208601611e46565b61192281611fe1565b840191505092915050565b600061193882611d0a565b6119428185611d44565b9350611952818560208601611e46565b61195b81611fe1565b840191505092915050565b6000611973601a83611d44565b915061197e82611ff2565b602082019050919050565b6000611996602683611d44565b91506119a18261201b565b604082019050919050565b60006119b9602e83611d44565b91506119c48261206a565b604082019050919050565b60006119dc603383611d44565b91506119e7826120b9565b604082019050919050565b600061010083016000830151611a0b6000860182611ab0565b506020830151611a1e6020860182611ab0565b506040830151611a316040860182611ab0565b506060830151611a446060860182611ab0565b5060808301518482036080860152611a5c82826118f4565b91505060a083015184820360a0860152611a7682826118f4565b91505060c083015184820360c0860152611a9082826118f4565b91505060e0830151611aa560e08601826118c7565b508091505092915050565b611ab981611dfc565b82525050565b611ac881611dfc565b82525050565b6000606082019050611ae36000830186611834565b611af06020830185611abf565b611afd60408301846118b8565b949350505050565b60006020820190508181036000830152611b1f8184611843565b905092915050565b6000602082019050611b3c60008301846118e5565b92915050565b60006020820190508181036000830152611b5b81611966565b9050919050565b60006020820190508181036000830152611b7b81611989565b9050919050565b60006020820190508181036000830152611b9b816119ac565b9050919050565b60006020820190508181036000830152611bbb816119cf565b9050919050565b6000602082019050611bd76000830184611abf565b92915050565b6000604082019050611bf26000830185611abf565b611bff6020830184611abf565b9392505050565b600061010082019050611c1c600083018b611abf565b611c29602083018a611abf565b611c366040830189611abf565b611c436060830188611abf565b8181036080830152611c55818761192d565b905081810360a0830152611c69818661192d565b905081810360c0830152611c7d818561192d565b9050611c8c60e08301846118d6565b9998505050505050505050565b6000611ca3611cb4565b9050611caf8282611eab565b919050565b6000604051905090565b600067ffffffffffffffff821115611cd957611cd8611fb2565b5b611ce282611fe1565b9050602081019050919050565b6000819050602082019050919050565b600081519050919050565b600081519050919050565b6000602082019050919050565b600082825260208201905092915050565b600082825260208201905092915050565b600082825260208201905092915050565b6000611d6082611dfc565b9150611d6b83611dfc565b9250827fffffffffffffffffffffffffffffffffffffffffffffffffffffffffffffffff03821115611da057611d9f611f25565b5b828201905092915050565b6000611db682611ddc565b9050919050565b60008115159050919050565b6000819050611dd782612108565b919050565b600073ffffffffffffffffffffffffffffffffffffffff82169050919050565b6000819050919050565b600060ff82169050919050565b6000611e1e82611dc9565b9050919050565b6000611e3082611e06565b9050919050565b82818337600083830152505050565b60005b83811015611e64578082015181840152602081019050611e49565b83811115611e73576000848401525b50505050565b60006002820490506001821680611e9157607f821691505b60208210811415611ea557611ea4611f83565b5b50919050565b611eb482611fe1565b810181811067ffffffffffffffff82111715611ed357611ed2611fb2565b5b80604052505050565b6000611ee782611dfc565b91507fffffffffffffffffffffffffffffffffffffffffffffffffffffffffffffffff821415611f1a57611f19611f25565b5b600182019050919050565b7f4e487b7100000000000000000000000000000000000000000000000000000000600052601160045260246000fd5b7f4e487b7100000000000000000000000000000000000000000000000000000000600052602160045260246000fd5b7f4e487b7100000000000000000000000000000000000000000000000000000000600052602260045260246000fd5b7f4e487b7100000000000000000000000000000000000000000000000000000000600052604160045260246000fd5b6000601f19601f8301169050919050565b7f57697468647261776572206e6f7420617574686f72697a65642e000000000000600082015250565b7f596f752063616e7420646f6e61746520746f2066696e69736865642063616d7060008201527f6169676e732e0000000000000000000000000000000000000000000000000000602082015250565b7f496e697469616c697a61626c653a20636f6e747261637420697320616c72656160008201527f647920696e697469616c697a6564000000000000000000000000000000000000602082015250565b7f43616e27742077697468647261772073696e6365207468652063616d7061696760008201527f6e73206973207374696c6c206163746976652e00000000000000000000000000602082015250565b6002811061211957612118611f54565b5b50565b61212581611dab565b811461213057600080fd5b50565b61213c81611dfc565b811461214757600080fd5b5056fea26469706673582212204609643ee13434ef4264edc71cefa0411798f771c906cd35c73d38b4fbc6921f64736f6c63430008040033",
  "immutableReferences": {},
  "source": "// SPDX-License-Identifier: MIT\npragma solidity >=0.4.22 <0.9.0;\n\nimport \"@openzeppelin/contracts-upgradeable/proxy/utils/Initializable.sol\";\n\n\ncontract FundRaiseContract is Initializable {\n    uint256 public campaignId;\n    uint256 private userId;\n\n    enum FundRaiseStatus {\n        Active,\n        Completed\n    }\n\n    struct FundRaiser {\n        address userAddress;\n        uint256 id;\n        uint256[] campaignIds;\n        bool isRegistered;\n    }\n    mapping(address => FundRaiser) public fundRaisers;\n\n    struct Campaign {\n        uint256 id;\n        uint256 goal;\n        uint256 currentAmount;\n        uint256 expireOf; // in seconds\n        string description;\n        string title;\n        string ipfsHash;\n        FundRaiseStatus status;\n    }\n    mapping(uint256 => Campaign) public campaigns;\n\n    event FundRaiseCreate(address indexed owner, uint256 campaignId);\n    event FundRaiseDonate(\n        address indexed donator,\n        uint256 campaignId,\n        uint256 amount\n    );\n    event FundRaiseWithdraw(\n        address indexed owner,\n        uint256 campaignId,\n        uint256 amount\n    );\n\n    function initialize() public initializer {\n        campaignId = 0;\n        userId = 0;\n    }\n\n    function createCampaign(\n        uint256 expireOf,\n        uint256 goal,\n        string memory title,\n        string memory description,\n        string memory ipfsHash\n    ) public {\n        Campaign memory _campaign = Campaign(\n            campaignId,\n            goal,\n            0,\n            expireOf,\n            description,\n            title,\n            ipfsHash,\n            FundRaiseStatus.Active\n        );\n\n        if (!fundRaisers[msg.sender].isRegistered) {\n            fundRaisers[msg.sender].userAddress = msg.sender;\n            fundRaisers[msg.sender].id = userId;\n            fundRaisers[msg.sender].campaignIds.push(campaignId);\n            fundRaisers[msg.sender].isRegistered = true;\n\n            userId += 1;\n        } else {\n            fundRaisers[msg.sender].campaignIds.push(campaignId);\n        }\n\n        campaigns[campaignId] = _campaign;\n\n        campaignId += 1;\n\n        emit FundRaiseCreate(msg.sender, campaignId);\n    }\n\n    function donate(uint256 _campaignId) public payable {\n        require(\n            block.timestamp < campaigns[_campaignId].expireOf,\n            \"You cant donate to finished campaigns.\"\n        );\n        \n        campaigns[_campaignId].currentAmount += msg.value;\n        emit FundRaiseDonate(msg.sender, _campaignId, msg.value);\n    }\n\n    function withdraw(uint256 _campaignId) public payable {\n        require(\n            msg.sender == fundRaisers[msg.sender].userAddress,\n            \"Withdrawer not authorized.\"\n        );\n\n        require(\n            block.timestamp > campaigns[_campaignId].expireOf,\n            \"Can't withdraw since the campaigns is still active.\"\n        );\n\n        uint256 accumulatedAmount = campaigns[_campaignId].currentAmount;\n\n        payable(msg.sender).transfer(accumulatedAmount);\n\n        campaigns[_campaignId].status = FundRaiseStatus.Completed;\n        campaigns[_campaignId].expireOf = 0;\n        campaigns[_campaignId].currentAmount = 0;\n\n        emit FundRaiseWithdraw(msg.sender, _campaignId, accumulatedAmount);\n    }\n\n    function getAllCampaignsByAddress()\n        external\n        view\n        returns (Campaign[] memory)\n    {\n        uint256[] memory campaignIds = fundRaisers[msg.sender].campaignIds;\n        Campaign[] memory campaignsByAddress = new Campaign[](\n            campaignIds.length\n        );\n\n        for (uint256 i = 0; i < campaignIds.length; i++) {\n            campaignsByAddress[i] = campaigns[campaignIds[i]];\n        }\n\n        return campaignsByAddress;\n    }\n\n    function getAllCampaigns()\n        external\n        view\n        returns (Campaign[] memory)\n    {\n        uint itemCount = campaignId;\n        Campaign[] memory campaignList = new Campaign[](itemCount);\n        \n        for (uint i = 0; i < itemCount; i++) {\n            Campaign memory currentCandidate = campaigns[i];\n            campaignList[i] = currentCandidate;\n        }\n\n        return campaignList;\n    }\n}\n",
  "sourcePath": "/Users/nikokodzabashev/Code/happy-faces/contracts/FundRaiseContract.sol",
  "compiler": {
    "name": "solc",
    "version": "0.8.4+commit.c7e474f2.Emscripten.clang"
  },
  "schemaVersion": "3.4.7",
  "updatedAt": "2022-06-09T12:01:37.036Z",
  "networkType": "ethereum",
  "devdoc": {
    "kind": "dev",
    "methods": {},
    "version": 1
  },
  "userdoc": {
    "kind": "user",
    "methods": {},
    "version": 1
  }
}