{
  "contractName": "FundRaiseContract",
  "abi": [
    {
      "anonymous": false,
      "inputs": [
        {
          "indexed": true,
          "internalType": "address",
          "name": "owner",
          "type": "address"
        },
        {
          "indexed": false,
          "internalType": "uint256",
          "name": "campaignId",
          "type": "uint256"
        }
      ],
      "name": "FundRaiseCreate",
      "type": "event"
    },
    {
      "anonymous": false,
      "inputs": [
        {
          "indexed": true,
          "internalType": "address",
          "name": "donator",
          "type": "address"
        },
        {
          "indexed": false,
          "internalType": "uint256",
          "name": "campaignId",
          "type": "uint256"
        },
        {
          "indexed": false,
          "internalType": "uint256",
          "name": "amount",
          "type": "uint256"
        }
      ],
      "name": "FundRaiseDonate",
      "type": "event"
    },
    {
      "anonymous": false,
      "inputs": [
        {
          "indexed": true,
          "internalType": "address",
          "name": "donator",
          "type": "address"
        },
        {
          "indexed": false,
          "internalType": "string",
          "name": "message",
          "type": "string"
        }
      ],
      "name": "FundRaiseDonateRejected",
      "type": "event"
    },
    {
      "anonymous": false,
      "inputs": [
        {
          "indexed": true,
          "internalType": "address",
          "name": "owner",
          "type": "address"
        },
        {
          "indexed": false,
          "internalType": "uint256",
          "name": "campaignId",
          "type": "uint256"
        },
        {
          "indexed": false,
          "internalType": "uint256",
          "name": "amount",
          "type": "uint256"
        }
      ],
      "name": "FundRaiseWithdraw",
      "type": "event"
    },
    {
      "inputs": [],
      "name": "campaignId",
      "outputs": [
        {
          "internalType": "uint256",
          "name": "",
          "type": "uint256"
        }
      ],
      "stateMutability": "view",
      "type": "function",
      "constant": true
    },
    {
      "inputs": [
        {
          "internalType": "uint256",
          "name": "",
          "type": "uint256"
        }
      ],
      "name": "campaigns",
      "outputs": [
        {
          "internalType": "uint256",
          "name": "id",
          "type": "uint256"
        },
        {
          "internalType": "uint256",
          "name": "goal",
          "type": "uint256"
        },
        {
          "internalType": "uint256",
          "name": "currentAmount",
          "type": "uint256"
        },
        {
          "internalType": "uint256",
          "name": "expireOf",
          "type": "uint256"
        },
        {
          "internalType": "string",
          "name": "description",
          "type": "string"
        },
        {
          "internalType": "string",
          "name": "title",
          "type": "string"
        },
        {
          "internalType": "string",
          "name": "ipfsHash",
          "type": "string"
        },
        {
          "internalType": "enum FundRaiseContract.FundRaiseStatus",
          "name": "status",
          "type": "uint8"
        }
      ],
      "stateMutability": "view",
      "type": "function",
      "constant": true
    },
    {
      "inputs": [
        {
          "internalType": "address",
          "name": "",
          "type": "address"
        }
      ],
      "name": "fundRaisers",
      "outputs": [
        {
          "internalType": "address",
          "name": "userAddress",
          "type": "address"
        },
        {
          "internalType": "uint256",
          "name": "id",
          "type": "uint256"
        },
        {
          "internalType": "bool",
          "name": "isRegistered",
          "type": "bool"
        }
      ],
      "stateMutability": "view",
      "type": "function",
      "constant": true
    },
    {
      "inputs": [
        {
          "internalType": "uint256",
          "name": "expireOf",
          "type": "uint256"
        },
        {
          "internalType": "uint256",
          "name": "goal",
          "type": "uint256"
        },
        {
          "internalType": "string",
          "name": "title",
          "type": "string"
        },
        {
          "internalType": "string",
          "name": "description",
          "type": "string"
        },
        {
          "internalType": "string",
          "name": "ipfsHash",
          "type": "string"
        }
      ],
      "name": "createCampaign",
      "outputs": [],
      "stateMutability": "nonpayable",
      "type": "function"
    },
    {
      "inputs": [
        {
          "internalType": "uint256",
          "name": "_campaignId",
          "type": "uint256"
        }
      ],
      "name": "donate",
      "outputs": [],
      "stateMutability": "payable",
      "type": "function",
      "payable": true
    },
    {
      "inputs": [
        {
          "internalType": "uint256",
          "name": "_campaignId",
          "type": "uint256"
        }
      ],
      "name": "withdraw",
      "outputs": [],
      "stateMutability": "payable",
      "type": "function",
      "payable": true
    },
    {
      "inputs": [],
      "name": "getAllCampaignsByAddress",
      "outputs": [
        {
          "components": [
            {
              "internalType": "uint256",
              "name": "id",
              "type": "uint256"
            },
            {
              "internalType": "uint256",
              "name": "goal",
              "type": "uint256"
            },
            {
              "internalType": "uint256",
              "name": "currentAmount",
              "type": "uint256"
            },
            {
              "internalType": "uint256",
              "name": "expireOf",
              "type": "uint256"
            },
            {
              "internalType": "string",
              "name": "description",
              "type": "string"
            },
            {
              "internalType": "string",
              "name": "title",
              "type": "string"
            },
            {
              "internalType": "string",
              "name": "ipfsHash",
              "type": "string"
            },
            {
              "internalType": "enum FundRaiseContract.FundRaiseStatus",
              "name": "status",
              "type": "uint8"
            }
          ],
          "internalType": "struct FundRaiseContract.Campaign[]",
          "name": "",
          "type": "tuple[]"
        }
      ],
      "stateMutability": "view",
      "type": "function",
      "constant": true
    },
    {
      "inputs": [],
      "name": "getAllCampaigns",
      "outputs": [
        {
          "components": [
            {
              "internalType": "uint256",
              "name": "id",
              "type": "uint256"
            },
            {
              "internalType": "uint256",
              "name": "goal",
              "type": "uint256"
            },
            {
              "internalType": "uint256",
              "name": "currentAmount",
              "type": "uint256"
            },
            {
              "internalType": "uint256",
              "name": "expireOf",
              "type": "uint256"
            },
            {
              "internalType": "string",
              "name": "description",
              "type": "string"
            },
            {
              "internalType": "string",
              "name": "title",
              "type": "string"
            },
            {
              "internalType": "string",
              "name": "ipfsHash",
              "type": "string"
            },
            {
              "internalType": "enum FundRaiseContract.FundRaiseStatus",
              "name": "status",
              "type": "uint8"
            }
          ],
          "internalType": "struct FundRaiseContract.Campaign[]",
          "name": "",
          "type": "tuple[]"
        }
      ],
      "stateMutability": "view",
      "type": "function",
      "constant": true
    }
  ],
  "bytecode": "0x608060405260008055600060015534801561001957600080fd5b50611f75806100296000396000f3fe60806040526004361061007b5760003560e01c806386cdf6041161004e57806386cdf604146101485780638ed5b0fc14610173578063c8e30e941461019e578063f14faf6f146101c95761007b565b8063031a5ee514610080578063141961bc146100bf5780632e1a7d4d1461010357806371572a561461011f575b600080fd5b34801561008c57600080fd5b506100a760048036038101906100a291906115df565b6101e5565b6040516100b69392919061196c565b60405180910390f35b3480156100cb57600080fd5b506100e660048036038101906100e19190611608565b61023c565b6040516100fa989796959493929190611a69565b60405180910390f35b61011d60048036038101906101189190611608565b610429565b005b34801561012b57600080fd5b5061014660048036038101906101419190611631565b6106a4565b005b34801561015457600080fd5b5061015d610af5565b60405161016a91906119a3565b60405180910390f35b34801561017f57600080fd5b50610188610e70565b6040516101959190611a25565b60405180910390f35b3480156101aa57600080fd5b506101b3610e76565b6040516101c091906119a3565b60405180910390f35b6101e360048036038101906101de9190611608565b6112bc565b005b60026020528060005260406000206000915090508060000160009054906101000a900473ffffffffffffffffffffffffffffffffffffffff16908060010154908060030160009054906101000a900460ff16905083565b600360205280600052604060002060009150905080600001549080600101549080600201549080600301549080600401805461027790611cbd565b80601f01602080910402602001604051908101604052809291908181526020018280546102a390611cbd565b80156102f05780601f106102c5576101008083540402835291602001916102f0565b820191906000526020600020905b8154815290600101906020018083116102d357829003601f168201915b50505050509080600501805461030590611cbd565b80601f016020809104026020016040519081016040528092919081815260200182805461033190611cbd565b801561037e5780601f106103535761010080835404028352916020019161037e565b820191906000526020600020905b81548152906001019060200180831161036157829003601f168201915b50505050509080600601805461039390611cbd565b80601f01602080910402602001604051908101604052809291908181526020018280546103bf90611cbd565b801561040c5780601f106103e15761010080835404028352916020019161040c565b820191906000526020600020905b8154815290600101906020018083116103ef57829003601f168201915b5050505050908060070160009054906101000a900460ff16905088565b600260003373ffffffffffffffffffffffffffffffffffffffff1673ffffffffffffffffffffffffffffffffffffffff16815260200190815260200160002060000160009054906101000a900473ffffffffffffffffffffffffffffffffffffffff1673ffffffffffffffffffffffffffffffffffffffff163373ffffffffffffffffffffffffffffffffffffffff16146104f9576040517f08c379a00000000000000000000000000000000000000000000000000000000081526004016104f0906119c5565b60405180910390fd5b60036000828152602001908152602001600020600301544211610551576040517f08c379a000000000000000000000000000000000000000000000000000000000815260040161054890611a05565b60405180910390fd5b6000600360008381526020019081526020016000206002015490503373ffffffffffffffffffffffffffffffffffffffff166108fc829081150290604051600060405180830381858888f193505050501580156105b2573d6000803e3d6000fd5b5060016003600084815260200190815260200160002060070160006101000a81548160ff02191690836001811115610613577f4e487b7100000000000000000000000000000000000000000000000000000000600052602160045260246000fd5b021790555060006003600084815260200190815260200160002060030181905550600060036000848152602001908152602001600020600201819055503373ffffffffffffffffffffffffffffffffffffffff167fd34468bc94161960698dc5449c13bf27f2d7ec9fa5c0e9cc6b0ffdee29a2baec8383604051610698929190611a40565b60405180910390a25050565b600060405180610100016040528060005481526020018681526020016000815260200142886106d39190611bb8565b815260200184815260200185815260200183815260200160006001811115610724577f4e487b7100000000000000000000000000000000000000000000000000000000600052602160045260246000fd5b8152509050600260003373ffffffffffffffffffffffffffffffffffffffff1673ffffffffffffffffffffffffffffffffffffffff16815260200190815260200160002060030160009054906101000a900460ff1661092b5733600260003373ffffffffffffffffffffffffffffffffffffffff1673ffffffffffffffffffffffffffffffffffffffff16815260200190815260200160002060000160006101000a81548173ffffffffffffffffffffffffffffffffffffffff021916908373ffffffffffffffffffffffffffffffffffffffff160217905550600154600260003373ffffffffffffffffffffffffffffffffffffffff1673ffffffffffffffffffffffffffffffffffffffff16815260200190815260200160002060010181905550600260003373ffffffffffffffffffffffffffffffffffffffff1673ffffffffffffffffffffffffffffffffffffffff16815260200190815260200160002060020160005490806001815401808255809150506001900390600052602060002001600090919091909150556001600260003373ffffffffffffffffffffffffffffffffffffffff1673ffffffffffffffffffffffffffffffffffffffff16815260200190815260200160002060030160006101000a81548160ff021916908315150217905550600180600082825461091f9190611bb8565b92505081905550610997565b600260003373ffffffffffffffffffffffffffffffffffffffff1673ffffffffffffffffffffffffffffffffffffffff16815260200190815260200160002060020160005490806001815401808255809150506001900390600052602060002001600090919091909150555b8060036000805481526020019081526020016000206000820151816000015560208201518160010155604082015181600201556060820151816003015560808201518160040190805190602001906109f092919061142d565b5060a0820151816005019080519060200190610a0d92919061142d565b5060c0820151816006019080519060200190610a2a92919061142d565b5060e08201518160070160006101000a81548160ff02191690836001811115610a7c577f4e487b7100000000000000000000000000000000000000000000000000000000600052602160045260246000fd5b02179055509050506001600080828254610a969190611bb8565b925050819055503373ffffffffffffffffffffffffffffffffffffffff167fc59c2864c121b32ae68d88f0c862e834df52f6d7ffdbe8b900f163e80ef30bb6600054604051610ae59190611a25565b60405180910390a2505050505050565b606060008054905060008167ffffffffffffffff811115610b3f577f4e487b7100000000000000000000000000000000000000000000000000000000600052604160045260246000fd5b604051908082528060200260200182016040528015610b7857816020015b610b656114b3565b815260200190600190039081610b5d5790505b50905060005b82811015610e67576000600360008381526020019081526020016000206040518061010001604052908160008201548152602001600182015481526020016002820154815260200160038201548152602001600482018054610bdf90611cbd565b80601f0160208091040260200160405190810160405280929190818152602001828054610c0b90611cbd565b8015610c585780601f10610c2d57610100808354040283529160200191610c58565b820191906000526020600020905b815481529060010190602001808311610c3b57829003601f168201915b50505050508152602001600582018054610c7190611cbd565b80601f0160208091040260200160405190810160405280929190818152602001828054610c9d90611cbd565b8015610cea5780601f10610cbf57610100808354040283529160200191610cea565b820191906000526020600020905b815481529060010190602001808311610ccd57829003601f168201915b50505050508152602001600682018054610d0390611cbd565b80601f0160208091040260200160405190810160405280929190818152602001828054610d2f90611cbd565b8015610d7c5780601f10610d5157610100808354040283529160200191610d7c565b820191906000526020600020905b815481529060010190602001808311610d5f57829003601f168201915b505050505081526020016007820160009054906101000a900460ff166001811115610dd0577f4e487b7100000000000000000000000000000000000000000000000000000000600052602160045260246000fd5b6001811115610e08577f4e487b7100000000000000000000000000000000000000000000000000000000600052602160045260246000fd5b81525050905080838381518110610e48577f4e487b7100000000000000000000000000000000000000000000000000000000600052603260045260246000fd5b6020026020010181905250508080610e5f90611d20565b915050610b7e565b50809250505090565b60005481565b60606000600260003373ffffffffffffffffffffffffffffffffffffffff1673ffffffffffffffffffffffffffffffffffffffff168152602001908152602001600020600201805480602002602001604051908101604052809291908181526020018280548015610f0657602002820191906000526020600020905b815481526020019060010190808311610ef2575b505050505090506000815167ffffffffffffffff811115610f50577f4e487b7100000000000000000000000000000000000000000000000000000000600052604160045260246000fd5b604051908082528060200260200182016040528015610f8957816020015b610f766114b3565b815260200190600190039081610f6e5790505b50905060005b82518110156112b35760036000848381518110610fd5577f4e487b7100000000000000000000000000000000000000000000000000000000600052603260045260246000fd5b60200260200101518152602001908152602001600020604051806101000160405290816000820154815260200160018201548152602001600282015481526020016003820154815260200160048201805461102f90611cbd565b80601f016020809104026020016040519081016040528092919081815260200182805461105b90611cbd565b80156110a85780601f1061107d576101008083540402835291602001916110a8565b820191906000526020600020905b81548152906001019060200180831161108b57829003601f168201915b505050505081526020016005820180546110c190611cbd565b80601f01602080910402602001604051908101604052809291908181526020018280546110ed90611cbd565b801561113a5780601f1061110f5761010080835404028352916020019161113a565b820191906000526020600020905b81548152906001019060200180831161111d57829003601f168201915b5050505050815260200160068201805461115390611cbd565b80601f016020809104026020016040519081016040528092919081815260200182805461117f90611cbd565b80156111cc5780601f106111a1576101008083540402835291602001916111cc565b820191906000526020600020905b8154815290600101906020018083116111af57829003601f168201915b505050505081526020016007820160009054906101000a900460ff166001811115611220577f4e487b7100000000000000000000000000000000000000000000000000000000600052602160045260246000fd5b6001811115611258577f4e487b7100000000000000000000000000000000000000000000000000000000600052602160045260246000fd5b81525050828281518110611295577f4e487b7100000000000000000000000000000000000000000000000000000000600052603260045260246000fd5b602002602001018190525080806112ab90611d20565b915050610f8f565b50809250505090565b60036000828152602001908152602001600020600301544211156113ac576000600360008381526020019081526020016000206003018190555060016003600083815260200190815260200160002060070160006101000a81548160ff02191690836001811115611356577f4e487b7100000000000000000000000000000000000000000000000000000000600052602160045260246000fd5b02179055503373ffffffffffffffffffffffffffffffffffffffff167ff579eff1c4e1eb05db6724ebc822dec1f32054c46882b83eefe75004c397363260405161139f906119e5565b60405180910390a261142a565b346003600083815260200190815260200160002060020160008282546113d29190611bb8565b925050819055503373ffffffffffffffffffffffffffffffffffffffff167fbce1df33c37f3ed0cbe86fa4c7de89002b38c4bcc70cdd365bd950b8850a85628234604051611421929190611a40565b60405180910390a25b50565b82805461143990611cbd565b90600052602060002090601f01602090048101928261145b57600085556114a2565b82601f1061147457805160ff19168380011785556114a2565b828001600101855582156114a2579182015b828111156114a1578251825591602001919060010190611486565b5b5090506114af9190611530565b5090565b604051806101000160405280600081526020016000815260200160008152602001600081526020016060815260200160608152602001606081526020016000600181111561152a577f4e487b7100000000000000000000000000000000000000000000000000000000600052602160045260246000fd5b81525090565b5b80821115611549576000816000905550600101611531565b5090565b600061156061155b84611b21565b611afc565b90508281526020810184848401111561157857600080fd5b611583848285611c7b565b509392505050565b60008135905061159a81611f11565b92915050565b600082601f8301126115b157600080fd5b81356115c184826020860161154d565b91505092915050565b6000813590506115d981611f28565b92915050565b6000602082840312156115f157600080fd5b60006115ff8482850161158b565b91505092915050565b60006020828403121561161a57600080fd5b6000611628848285016115ca565b91505092915050565b600080600080600060a0868803121561164957600080fd5b6000611657888289016115ca565b9550506020611668888289016115ca565b945050604086013567ffffffffffffffff81111561168557600080fd5b611691888289016115a0565b935050606086013567ffffffffffffffff8111156116ae57600080fd5b6116ba888289016115a0565b925050608086013567ffffffffffffffff8111156116d757600080fd5b6116e3888289016115a0565b9150509295509295909350565b60006116fc8383611890565b905092915050565b61170d81611c0e565b82525050565b600061171e82611b62565b6117288185611b85565b93508360208202850161173a85611b52565b8060005b85811015611776578484038952815161175785826116f0565b945061176283611b78565b925060208a0199505060018101905061173e565b50829750879550505050505092915050565b61179181611c20565b82525050565b6117a081611c69565b82525050565b6117af81611c69565b82525050565b60006117c082611b6d565b6117ca8185611b96565b93506117da818560208601611c8a565b6117e381611e25565b840191505092915050565b60006117f982611b6d565b6118038185611ba7565b9350611813818560208601611c8a565b61181c81611e25565b840191505092915050565b6000611834601a83611ba7565b915061183f82611e36565b602082019050919050565b6000611857602683611ba7565b915061186282611e5f565b604082019050919050565b600061187a603383611ba7565b915061188582611eae565b604082019050919050565b6000610100830160008301516118a9600086018261194e565b5060208301516118bc602086018261194e565b5060408301516118cf604086018261194e565b5060608301516118e2606086018261194e565b50608083015184820360808601526118fa82826117b5565b91505060a083015184820360a086015261191482826117b5565b91505060c083015184820360c086015261192e82826117b5565b91505060e083015161194360e0860182611797565b508091505092915050565b61195781611c5f565b82525050565b61196681611c5f565b82525050565b60006060820190506119816000830186611704565b61198e602083018561195d565b61199b6040830184611788565b949350505050565b600060208201905081810360008301526119bd8184611713565b905092915050565b600060208201905081810360008301526119de81611827565b9050919050565b600060208201905081810360008301526119fe8161184a565b9050919050565b60006020820190508181036000830152611a1e8161186d565b9050919050565b6000602082019050611a3a600083018461195d565b92915050565b6000604082019050611a55600083018561195d565b611a62602083018461195d565b9392505050565b600061010082019050611a7f600083018b61195d565b611a8c602083018a61195d565b611a99604083018961195d565b611aa6606083018861195d565b8181036080830152611ab881876117ee565b905081810360a0830152611acc81866117ee565b905081810360c0830152611ae081856117ee565b9050611aef60e08301846117a6565b9998505050505050505050565b6000611b06611b17565b9050611b128282611cef565b919050565b6000604051905090565b600067ffffffffffffffff821115611b3c57611b3b611df6565b5b611b4582611e25565b9050602081019050919050565b6000819050602082019050919050565b600081519050919050565b600081519050919050565b6000602082019050919050565b600082825260208201905092915050565b600082825260208201905092915050565b600082825260208201905092915050565b6000611bc382611c5f565b9150611bce83611c5f565b9250827fffffffffffffffffffffffffffffffffffffffffffffffffffffffffffffffff03821115611c0357611c02611d69565b5b828201905092915050565b6000611c1982611c3f565b9050919050565b60008115159050919050565b6000819050611c3a82611efd565b919050565b600073ffffffffffffffffffffffffffffffffffffffff82169050919050565b6000819050919050565b6000611c7482611c2c565b9050919050565b82818337600083830152505050565b60005b83811015611ca8578082015181840152602081019050611c8d565b83811115611cb7576000848401525b50505050565b60006002820490506001821680611cd557607f821691505b60208210811415611ce957611ce8611dc7565b5b50919050565b611cf882611e25565b810181811067ffffffffffffffff82111715611d1757611d16611df6565b5b80604052505050565b6000611d2b82611c5f565b91507fffffffffffffffffffffffffffffffffffffffffffffffffffffffffffffffff821415611d5e57611d5d611d69565b5b600182019050919050565b7f4e487b7100000000000000000000000000000000000000000000000000000000600052601160045260246000fd5b7f4e487b7100000000000000000000000000000000000000000000000000000000600052602160045260246000fd5b7f4e487b7100000000000000000000000000000000000000000000000000000000600052602260045260246000fd5b7f4e487b7100000000000000000000000000000000000000000000000000000000600052604160045260246000fd5b6000601f19601f8301169050919050565b7f57697468647261776572206e6f7420617574686f72697a65642e000000000000600082015250565b7f596f752063616e7420646f6e61746520746f2066696e69736865642063616d7060008201527f6169676e732e0000000000000000000000000000000000000000000000000000602082015250565b7f43616e27742077697468647261772073696e6365207468652063616d7061696760008201527f6e73206973207374696c6c206163746976652e00000000000000000000000000602082015250565b60028110611f0e57611f0d611d98565b5b50565b611f1a81611c0e565b8114611f2557600080fd5b50565b611f3181611c5f565b8114611f3c57600080fd5b5056fea2646970667358221220fc097cf71f4b1c3dcf91bda3836fbc2f433e02401b28b282929b24a4c5402e9d64736f6c63430008040033",
  "immutableReferences": {},
  "source": "// SPDX-License-Identifier: MIT\npragma solidity >=0.4.22 <0.9.0;\n\ncontract FundRaiseContract {\n    uint256 public campaignId = 0;\n    uint256 private userId = 0;\n\n    enum FundRaiseStatus {\n        Active,\n        Completed\n    }\n\n    struct FundRaiser {\n        address userAddress;\n        uint256 id;\n        uint256[] campaignIds;\n        bool isRegistered;\n    }\n    mapping(address => FundRaiser) public fundRaisers;\n\n    struct Campaign {\n        uint256 id;\n        uint256 goal;\n        uint256 currentAmount;\n        uint256 expireOf; // in seconds\n        string description;\n        string title;\n        string ipfsHash;\n        FundRaiseStatus status;\n    }\n    mapping(uint256 => Campaign) public campaigns;\n\n    event FundRaiseCreate(address indexed owner, uint256 campaignId);\n    event FundRaiseDonate(\n        address indexed donator,\n        uint256 campaignId,\n        uint256 amount\n    );\n    event FundRaiseDonateRejected(address indexed donator, string message);\n    event FundRaiseWithdraw(\n        address indexed owner,\n        uint256 campaignId,\n        uint256 amount\n    );\n\n    function createCampaign(\n        uint256 expireOf,\n        uint256 goal,\n        string memory title,\n        string memory description,\n        string memory ipfsHash\n    ) public {\n        Campaign memory _campaign = Campaign(\n            campaignId,\n            goal,\n            0,\n            expireOf + block.timestamp,\n            description,\n            title,\n            ipfsHash,\n            FundRaiseStatus.Active\n        );\n\n        if (!fundRaisers[msg.sender].isRegistered) {\n            fundRaisers[msg.sender].userAddress = msg.sender;\n            fundRaisers[msg.sender].id = userId;\n            fundRaisers[msg.sender].campaignIds.push(campaignId);\n            fundRaisers[msg.sender].isRegistered = true;\n\n            userId += 1;\n        } else {\n            fundRaisers[msg.sender].campaignIds.push(campaignId);\n        }\n\n        campaigns[campaignId] = _campaign;\n\n        campaignId += 1;\n\n        emit FundRaiseCreate(msg.sender, campaignId);\n    }\n\n    function donate(uint256 _campaignId) public payable {\n        if (block.timestamp > campaigns[_campaignId].expireOf) {\n            campaigns[_campaignId].expireOf = 0;\n            campaigns[_campaignId].status = FundRaiseStatus.Completed;\n            emit FundRaiseDonateRejected(\n                msg.sender,\n                \"You cant donate to finished campaigns.\"\n            );\n        } else {\n            campaigns[_campaignId].currentAmount += msg.value;\n            emit FundRaiseDonate(msg.sender, _campaignId, msg.value);\n        }\n    }\n\n    function withdraw(uint256 _campaignId) public payable {\n        require(\n            msg.sender == fundRaisers[msg.sender].userAddress,\n            \"Withdrawer not authorized.\"\n        );\n\n        require(\n            block.timestamp > campaigns[_campaignId].expireOf,\n            \"Can't withdraw since the campaigns is still active.\"\n        );\n\n        uint256 accumulatedAmount = campaigns[_campaignId].currentAmount;\n\n        payable(msg.sender).transfer(accumulatedAmount);\n\n        campaigns[_campaignId].status = FundRaiseStatus.Completed;\n        campaigns[_campaignId].expireOf = 0;\n        campaigns[_campaignId].currentAmount = 0;\n\n        emit FundRaiseWithdraw(msg.sender, _campaignId, accumulatedAmount);\n    }\n\n    function getAllCampaignsByAddress()\n        external\n        view\n        returns (Campaign[] memory)\n    {\n        uint256[] memory campaignIds = fundRaisers[msg.sender].campaignIds;\n        Campaign[] memory campaignsByAddress = new Campaign[](\n            campaignIds.length\n        );\n\n        for (uint256 i = 0; i < campaignIds.length; i++) {\n            campaignsByAddress[i] = campaigns[campaignIds[i]];\n        }\n\n        return campaignsByAddress;\n    }\n\n    function getAllCampaigns()\n        external\n        view\n        returns (Campaign[] memory)\n    {\n        uint itemCount = campaignId;\n        Campaign[] memory campaignList = new Campaign[](itemCount);\n        \n        for (uint i = 0; i < itemCount; i++) {\n            Campaign memory currentCandidate = campaigns[i];\n            campaignList[i] = currentCandidate;\n        }\n\n        return campaignList;\n    }\n}\n",
  "sourcePath": "/Users/nikokodzabashev/Code/happy-faces/contracts/FundRaiseContract.sol",
  "compiler": {
    "name": "solc",
    "version": "0.8.4+commit.c7e474f2.Emscripten.clang"
  },
  "schemaVersion": "3.4.7",
  "updatedAt": "2022-05-24T12:53:25.064Z",
  "networkType": "ethereum",
  "devdoc": {
    "kind": "dev",
    "methods": {},
    "version": 1
  },
  "userdoc": {
    "kind": "user",
    "methods": {},
    "version": 1
  }
}